15160904084901001DICKINSON ISD  DICKINSON H S  ACOSTA         CHRISTOPHEG636743308M01062001 110000H160    000 0     01   285851    101208975  008490100100002DK5CT00                         09499173374A1                           050                   000000                                 S         O    SF                                           0406040802    243657                2  10111000000 03151590SS 1008              213431235124321451235424121543123431423543234323152341              +++++G+H+FC+++B++FABB+C+AFBJAF++A+C+AJCFAB+H+F++DFCJ++              AGBHAJCJAHBHAACGDJBACJBFDHAFCHBFBADGCGAHDAAGDHBHAJAHDG                                                                                                                                                                                    1516084901001SS1036570        1516084901001SS1147710        1516084901001SS0036600                                                                                                                     .
15160904084901001DICKINSON ISD  DICKINSON H S  ACOSTA         CHRISTOPHEG636743308M01062001 110000H160    000 0     01   285851    101208975  008490100100002DK5CT00                         09499173374A1                           050                   000000                                 S         O    SF                                           0406040802    243657                2  10111000000 03151590SS 1008              213431235124321451235424121543123431423543234323152341              +++++G+H+FC+++B++FABB+C+AFBJAF++A+C+AJCFAB+H+F++DFCJ++              AGBHAJCJAHBHAACGDJBACJBFDHAFCHBFBADGCGAHDAAGDHBHAJAHDG                                                                                                                                                                                    1516084901001SS1036570        1516084901001SS1147710        1516084901001SS0036600                                                                                                                     .
15160904084901001DICKINSON ISD  DICKINSON H S  ADAMS          MICAHLA   N627725815F06052000 000001W060    000 0     01   0107430   101208984  008490100100002SMR5700                         06426349151A1                           030                   000000                                 S         P    SF                                           0407050301    203500                2  00100000000 03151450SS 0008              213431235124321451235424121543123431423543234323152341              +JDG++DH+JCFBB+HCGA+DGC+++BGB+D+D+BHA++JCB+H+G+JDH++B+              AGBHAJCJAHBHAACGDJBACJBFDHAFCHBFBADGCGAHDAAGDHBHAJAHDG                                                                                                                                                                                    1516084901001SS0035000        1516084901001SS0035000        1516084901001SA0010050                                                                                                                     .
15160904084901001DICKINSON ISD  DICKINSON H S  AGUIRRE        ALEXIA     638741938F01102001 110000H160    000 0     01   094301    101208996  008490100100002DMCVB00                         01185545824A1                           030                   000000                                 S         P    SF                                           0609090903    364088                2  10111111111 03151788SS 1008              213431235124321451235424121543123431423543234323152341              +F+++++HBF+++++HC++*+++++F*JD+A++++++HB++++J++++D+CF++              AGBHAJCJAHBHAACGDJBACJBFDHAFCHBFBADGCGAHDAAGDHBHAJAHDG                                                                                                                                                                                    1516084901001SS1040880        1516084901001SS1041910        1516084901001SS1044710                                                                                                                     .
15161204084901001DICKINSON ISD  DICKINSON H S  AJTUN AJANEL   RUDY RODOL S15704423M11231997 110000H160    C02 0     01   1101952   102487631  0084901001000025RGWY00                         05153816826A1                           030                   000001                                 S         O    LR                                           0004040301    123172                1  0000000000                 0304201400111 213431235124321451235424121543123431423543234323152341              DF++BGA+CF++CBDHAH+BDF+JAFB+D+A+CBBHDH+FBBBHAFCGCFCG+J              AGBHAJCJAHBHAACGDJBACJBFDHAFCHBFBADGCGAHDAAGDHBHAJAHDG                                                                                                                                                                                    1516084901001LS0031720        1516084901001LS0032910        1614084901001SS0028680        1516084901001SS0027760        1516084901001LS0031480                                                         .
15161004084901001DICKINSON ISD  DICKINSON H S  AJTUN AJTUN    REYNALDO R S15704424M03081997 110000H160    C02 0     01   1101953   100709512  0084901001000025RGWJ00                         08761864897A1                           030                   000001                                 S         O    LR                                           0505040603    233625                1  1011100000                 1304201400111 213431235124321451235424121543123431423543234323152341              ++AJB++++JCF++++B++BD++G+FB++JCJC+BFBH++BBBH++AJCHDG+H              AGBHAJCJAHBHAACGDJBACJBFDHAFCHBFBADGCGAHDAAGDHBHAJAHDG                                                                                                                                                                                    1516084901001LS1036250        1514084901001LS1035740        1614084901001SS0030300        1516084901001SS0029690        1516084901001LS0031070                                                         .
15160904084901001DICKINSON ISD  DICKINSON H S  ALANIZ         ALEXANDRA  631783562F08312001 100001H060    000 0     01   087861    101209009  008490100100002DKHQF00                         03539227962A1                           030                   000000                                 S         P    SF                                           0705060604    283797                2  10111110000 03151561SS 0008              213431235124321451235424121543123431423543234323152341              ++CG+++F+GCJBB++CF+BB+CJ+FB++F+++++++J+++B+HAFA+D+D+B+              AGBHAJCJAHBHAACGDJBACJBFDHAFCHBFBADGCGAHDAAGDHBHAJAHDG                                                                                                                                                                                    1516084901001SS1037970        1516084901001SS1042810        1516084901001SS1040000                                                                                                                     .
15160904084901001DICKINSON ISD  DICKINSON H S  ALANIZ         ARMANDO   T635743229M12312000 110000H060    000 0     00   085811    101209014  008490100100002DKY8500                         05818681939A1                           030                   000000                                 S         P    SF                                           0508090806    364088                2  10111111111 03151700SS 1008              213431235124321451235424121543123431423543234323152341              +F+G+++++G+JB++++H++++C+BGB+A+++D++++JC++++J+F++++C++F              AGBHAJCJAHBHAACGDJBACJBFDHAFCHBFBADGCGAHDAAGDHBHAJAHDG                                                                                                                                                                                    1516084901001SS1040880        1516084901001SS1041910        1516084901001SS1038880                                                                                                                     .
15160904084901001DICKINSON ISD  DICKINSON H S  ALLEY          JOSHUA    R635744480M12262000 000001W060    000 0     10   286055    101209028  008490100100002DKY9J00                         05886243356A1                           030                   000000                                 S         P    SF                                           1012121105    504928                2  11111111112 03151700SS 1008              213431235124321451235424121543123431423543234323152341              ++++++++++++++++++++++++++BH++++D+++++C+++++++++++++++              AGBHAJCJAHBHAACGDJBACJBFDHAFCHBFBADGCGAHDAAGDHBHAJAHDG                                                                                                                                                                                    1516084901001SS1149280        1516084901001SS1145760        1516084901001SS1044290                                                                                                                     .
15160904084901001DICKINSON ISD  DICKINSON H S  ALMANZA        ERICK     US15703756M10152000 110000H160    000 0     01   285296    101209033  008490100100002DHZ6R00                         09212717292A1                           030                   000000                                 S         P    SF                                           0506060705    293832                2  10111110000 03151590SS 1008              213431235124321451235424121543123431423543234323152341              +++++++G+JCFB+BH+++*+GD+B+B++J+H+++H+FB++BCJBJ+++GD++J              AGBHAJCJAHBHAACGDJBACJBFDHAFCHBFBADGCGAHDAAGDHBHAJAHDG                                                                                                                                                                                    1516084901001SS1038320        1516084901001SS1039250        1516084901001SS1039400                                                                                                                     .
15160904084901001DICKINSON ISD  DICKINSON H S  ALMARIO        MATTHEW   J628789323M08162001 001000A060    000 0     00   287497    101209036  008490100100002DJ46B00                         05547978256A1                           030                   000000                                 S         P    SF                                           0810111004    434399                2  11111111112 03151665SS 1008              213431235124321451235424121543123431423543234323152341              ++A++++++F++B+++B+++++++AG++A+++++B++++++++++++++GB++F              AGBHAJCJAHBHAACGDJBACJBFDHAFCHBFBADGCGAHDAAGDHBHAJAHDG                                                                                                                                                                                    1516084901001SS1143990        1516084901001SS1041480        1516084901001SS1039630                                                                                                                     .
15160904084901001DICKINSON ISD  DICKINSON H S  ALVARADO       PABLO     A631748739M11292000 000001W060    000 0     00   0107280   101209046  008490100100002P9SMC00                         08721813388A1                           030                   000000                                 S         P    SF                                           0809120806    434399                2  11111111112 03151717SS 1008              213431235124321451235424121543123431423543234323152341              ++++++A+++++++++++++++++B+++A+C+++C++J++B++++J++B+B+B+              AGBHAJCJAHBHAACGDJBACJBFDHAFCHBFBADGCGAHDAAGDHBHAJAHDG                                                                                                                                                                                    1516084901001SS1143990        1516084901001SS1146150        1516084901001SS1044710                                                                                                                     .
15160904084901001DICKINSON ISD  DICKINSON H S  ALVARADO VELAZCJOSE DE JE 648780965M12051999 110000H160    C03 0     01   2104764   101208875  00849010010000268DFJ00                         06975396426A1                           030                   000001                                 S         O    LR                                           0303030403    163354                1  0000000000                 0204201500111 213431235124321451235424121543123431423543234323152341              +HCJBGBG+GDJC+++BH+BBGCHCF+H++AHCBCH+HB+CBB+A+DGC+BJ++              AGBHAJCJAHBHAACGDJBACJBFDHAFCHBFBADGCGAHDAAGDHBHAJAHDG                                                                                                                                                                                    1516084901001LS0033540        1516084901001LS0033350        1515084901001SS0029460        1516084901001SS0031490                                                                                       .
15161004084901001DICKINSON ISD  DICKINSON H S  ALVAREZ        ISRAEL     S15703591M03181999 100001H160    000 0     01   281154    100709318  008490100100002DHZYF00                         08434541955A1                           030                   000000                                 S         P    SR                                           0404020403    173395                1  0000000000                               213431235124321451235424121543123431423543234323152341              ++DJBHD++G+GCBDH+FDBBGD++JBGBG+G+BBJ++B+BB+H+GCFBHBF++              AGBHAJCJAHBHAACGDJBACJBFDHAFCHBFBADGCGAHDAAGDHBHAJAHDG                                                                                                                                                                                    1516084901001SS0033950        1515084901001SS1036500        1516084901001SS0028680        1516084901001SS0028430                                                                                       .
15160904084901001DICKINSON ISD  DICKINSON H S  ALVAREZ        JUAN       643763564M07302001 110000H160    000 0     01   285604    101209056  008490100100002DMY8K00                         01743229216A1                           030                   000000                                 S         P    SF                                           0105050505    213550                2  10110000000 03151609SS 1008              213431235124321451235424121543123431423543234323152341              +F+JCFAH+JCJ+++J+HDB+GA+B+BH+GDHA+AH++++BB+HAJA+C+B++F              AGBHAJCJAHBHAACGDJBACJBFDHAFCHBFBADGCGAHDAAGDHBHAJAHDG                                                                                                                                                                                    1516084901001SS1035500        1516084901001SS1038500        1516084901001SS0036330                                                                                                                     .
15160904084901001DICKINSON ISD  DICKINSON H S  AMASON         ALEXIS    L645724955F10122000 000001W260    000 0     00   294341    101209070  008490100100002DM8BK00                         02262584184A1                           030                   000000                                 S         P    SF                                           0404040502    193473                2  00000000000 03151728SS 1008              213431235124321451235424121543123431423543234323152341              ++++CHDG+++F+++HCFD+DFCJCGBHDFAJC+B+BHDF+B+H+FD+C+BJ+F              AGBHAJCJAHBHAACGDJBACJBFDHAFCHBFBADGCGAHDAAGDHBHAJAHDG                                                                                                                                                                                    1516084901001SS0034730        1516084901001SS1044320        1516084901001SS1149290                                                                                                                     .
15160904084901001DICKINSON ISD  DICKINSON H S  AMAYA          JONATHAN   633700673M02072000 100001H160    000 0     01   284263    101209074  008490100100002DKRTC00                         02168939977A1                           030                   000000                                 S         P    SF                                           0609070603    313903                2  10111111001 03151590SS 1008              213431235124321451235424121543123431423543234323152341              +++G+++HBF+F+++HC++B+H+++GBG+FA+++B++JC+CB++++++B+DJ+H              AGBHAJCJAHBHAACGDJBACJBFDHAFCHBFBADGCGAHDAAGDHBHAJAHDG                                                                                                                                                                                    1516084901001SS1039030        1516084901001SS1039250        1516084901001SS0035540                                                                                                                     .
15160904084901001DICKINSON ISD  DICKINSON H S  AMBRIZ         MAHYA     A643765978F07212001 110000H060    000 0     01   287330    101209078  008490100100002DMY8700                         08978996329A1                           040                   000000                                 S         P    SF                                           0509110703    354050                2  10111111111 03151647SS 1008              213431235124321451235424121543123431423543234323152341              +++J+++++G+J++++CG+++F++AFBH+++++++HDJ+++B+J+++JCFD+++              AGBHAJCJAHBHAACGDJBACJBFDHAFCHBFBADGCGAHDAAGDHBHAJAHDG                                                                                                                                                                                    1516084901001SS1040500        1516084901001SS1038760        1516084901001SS1037960                                                                                                                     .
15160904084901001DICKINSON ISD  DICKINSON H S  ANDERSON       SHARANDA  G641760348F07062001 000100B060    000 0     01   089560    101209084  008490100100002DMRP800                         04329221799A1                           030                   100000                                 S         P    SF                                           0610140705    424333                2  11111111112 03151665SS 1008              213431235124321451235424121543123431423543234323152341              +++++++++GCG++++++++++++C++G++C++B+J+H++++++C+++D+++C+              AGBHAJCJAHBHAACGDJBACJBFDHAFCHBFBADGCGAHDAAGDHBHAJAHDG                                                                                                                                                                                    1516084901001SS1143330        1516084901001SS1041480        1516084901001SS1037960                                                                                                                     .
15160904084901001DICKINSON ISD  DICKINSON H S  ANTLEY         DANIEL    C630748168M11202000 000001W060    000 0     00   287871    101209106  008490100100002DKCRN00                         02638788554A1                           030                   000000                                 S         P    SF                                           0207040504    223585                2  10110000000 03151599SS 1008              213431235124321451235424121543123431423543234323152341              +J++C++++F++++D+CHAB+FCHBFB+AJA+D+BJBHBFBB+J+F+J++B+BF              AGBHAJCJAHBHAACGDJBACJBFDHAFCHBFBADGCGAHDAAGDHBHAJAHDG                                                                                                                                                                                    1516084901001SS1035850        1516084901001SS1040000        1516084901001SS0036600                                                                                                                     .
15160904084901001DICKINSON ISD  DICKINSON H S  ARDIE          EUGENE    L630706876M01262000 000100B160    000 1     01   2101270   101209118  008490100100002DKCG500                         03749963789A1                           030                   100100                                 S         O    AF                                           0609080803    344000                2  10111111111 03151647AS 1008              213431235124321451235424121543123431423543234323152341              ++A++++G+F+FB+++++++B++++GBGBJC++++++J+++B+JA+C+DH+++F              AGBHAJCJAHBHAACGDJBACJBFDHAFCHBFBADGCGAHDAAGDHBHAJAHDG                                                                                                                                                                                    1516084901001AS1040000        1516084901001AS0035000        1516084901001AS1038880                                                                                                                     .
15161004084901001DICKINSON ISD  DICKINSON H S  ARDIE          IZELL     V627667584M02201999 000100B160    000 0     01   2101268   100709328  008490100100002DJYQ400                         02595398288A1                           030                   000000                                 S         P    SF                                           0505080602    263727                1  1011110000                               213431235124321451235424121543123431423543234323152341              +FA++F+G++AJB+++C+A+B++HBF++A+CH++AH+++GCBBFA+D+BGD+++              AGBHAJCJAHBHAACGDJBACJBFDHAFCHBFBADGCGAHDAAGDHBHAJAHDG                                                                                                                                                                                    1516084901001SS1037270        1515084901001SS1035260        1516084901001SS0036600        1516084901001SS1037500                                                                                       .
15160904084901001DICKINSON ISD  DICKINSON H S  ARGO           CALEB     A629766983M04122001 000001W060    000 0     10   087794    101209123  008490100100002DJ8M600                         09252954694A1                           030                   000000                                 S         P    SF                                           0206040402    183435                2  00000000000 03151656SS 1008              213431235124321451235424121543123431423543234323152341              +F++DF+G+FCFD++FCFDB+H+HA+BH++D+DBA++HCF+BDHB+C+DHBFCJ              AGBHAJCJAHBHAACGDJBACJBFDHAFCHBFBADGCGAHDAAGDHBHAJAHDG                                                                                                                                                                                    1516084901001SS0034350        1516084901001SS1040670        1516084901001SS0037500                                                                                                                     .
15160904084901001DICKINSON ISD  DICKINSON H S  ARGUETA        FRANKLIN  D627700577M12311999 100001H060    000 0     01   2107426   100709238  008490100100002SMRQK00                         01392633974A1                           040                   000000                                 S         P    SR                                           0501040301    143267                1  0000000000                               213431235124321451235424121543123431423543234323152341              ++D+B+BFCJC++B+JAHABBGDH+JBHA++GCB+HAHCF+BD+CFAJC+CGBJ              AGBHAJCJAHBHAACGDJBACJBFDHAFCHBFBADGCGAHDAAGDHBHAJAHDG                                                                                                                                                                                    1516084901001SS0032670        1516084901001SS0032480        1516084901001SS0028320        1516084901001SA0008450                                                                                       .
15160904084901001DICKINSON ISD  DICKINSON H S  ARMENDARIZ     VERONICA  N641727877F09202000 110000H060    000 0     01   296949    101209127  008490100100002YQP5R00                         08384755728A1                           030                   000000                                 S         P    SF                                           0306050604    243657                2  10111000000 03151570SS 0008              213431235124321451235424121543123431423543234323152341              +F+++++G+FCJB++J+HD++GA+B+BH+GAGA+A++JD+BB+FAJ++CGB++F              AGBHAJCJAHBHAACGDJBACJBFDHAFCHBFBADGCGAHDAAGDHBHAJAHDG                                                                                                                                                                                    1516084901001SS1036570        1516084901001SS1041480        1516084901001SS1041300                                                                                                                     .
15161004084901001DICKINSON ISD  DICKINSON H S  ARREAZOLA      ALEXANDRIAO627686603F08011999 100001H060    000 0     00   2107417   100709716  008490100100002TSCQY00                         09894698328A1                           030                   000000                                 S         P    SR                                           0401070502    193473                1  0000000000                               213431235124321451235424121543123431423543234323152341              B++FD+BGCFD++BD+AFA+B+A++GBGAJAHDB++BFC++B++B+AJB+C+CJ              AGBHAJCJAHBHAACGDJBACJBFDHAFCHBFBADGCGAHDAAGDHBHAJAHDG                                                                                                                                                                                    1516084901001SS0034730        1516084901001SS1039250        1615084902001SS1039250        1516084901001SS1039250        1515084902001SS1036960                                                         .
15160904084901001DICKINSON ISD  DICKINSON H S  ARTEAGA        DANIELA    640747470F02082001 110000H260    000 0     00   286049    101209132  008490100100002DMNJT00                         02274868719A1                           030                   000000                                 S         P    SF                                           0708070604    323925                2  10111111100 03151647SS 1008              213431235124321451235424121543123431423543234323152341              +++G+++H+J++B+++C++B+H+++GBJ++++++B+AHC+C++++GD+C+BGCF              AGBHAJCJAHBHAACGDJBACJBFDHAFCHBFBADGCGAHDAAGDHBHAJAHDG                                                                                                                                                                                    1516084901001SS1039250        1516084901001SS1040270        1516084901001SS1038500                                                                                                                     .
15160904084901001DICKINSON ISD  DICKINSON H S  ASHTON         JERMAINE  D634687483M09221999 000100B160    000 0     01   083889    101209135  008490100100002DKVR800                         05169672454A1                           030                   000000                                 S         P    SF                                           0206050502    203500                2  00100000000 03151561SS 0008              213431235124321451235424121543123431423543234323152341              +JA++HA++J+FB+D+C++BBFAGAFBJ++++D+CJBJ++BB+FCGC+DFDG+F              AGBHAJCJAHBHAACGDJBACJBFDHAFCHBFBADGCGAHDAAGDHBHAJAHDG                                                                                                                                                                                    1516084901001SS0035000        1516084901001SS0033380        1516084901001SS0033990                                                                                                                     .
15160904084901001DICKINSON ISD  DICKINSON H S  ATONAL         MICHELLE  G631724517F06272000 110000H160    000 1     01   290432    102487646  008490100100002DKHFS00                         08963352862A1                           030                   100100                                 S         O    AF                                           0004050501    153311                2  00000000000 03151487AS 0008              213431235124321451235424121543123431423543234323152341              +H+++G+G+GCFCBB+CHCBBH++CFBJAJCHCB+JAHCGCBBF++++DHBG+F              AGBHAJCJAHBHAACGDJBACJBFDHAFCHBFBADGCGAHDAAGDHBHAJAHDG                                                                                                                                                                                    1516084901001AS0033110        1516084901001AS0033910        1516084901001AS0031540                                                                                                                     .
15160904084901001DICKINSON ISD  DICKINSON H S  AVILA          GISELLE    627760652F03142001 100100H160    000 0     01   085570    101209149  008490100100002DJY6T00                         04481372583A1                           030                   000000                                 S         P    SF                                           0908050802    323925                2  10111111101 03151618SS 1008              213431235124321451235424121543123431423543234323152341              BJA++++FB++J++++A++B+++++F+HA+++D+B++JC+C++J+++JDGDG++              AGBHAJCJAHBHAACGDJBACJBFDHAFCHBFBADGCGAHDAAGDHBHAJAHDG                                                                                                                                                                                    1516084901001SS1039250        1516084901001SS1040000        1516084901001SS1039630                                                                                                                     .
15160904084901001DICKINSON ISD  DICKINSON H S  AVILA          JAIME     D627786541M08112001 110000H060    000 0     01   092644    101209154  008490100100002DJY9R00                         04633272381A1                           030                   000000                                 S         P    SF                                           0907090905    394210                2  10111111111 03151583SS 1008              213431235124321451235424121543123431423543234323152341              ++D++++G+FAJ++++++D+A+++++B+++++AB++++D+++D+++A+++BG++              AGBHAJCJAHBHAACGDJBACJBFDHAFCHBFBADGCGAHDAAGDHBHAJAHDG                                                                                                                                                                                    1516084901001SS1042100        1516084901001SS1039510        1516084901001SS0036870                                                                                                                     .
15160904084901001DICKINSON ISD  DICKINSON H S  AVILA          MARIO      645725207M10092000 110000H160    000 0     00   085345    101209158  008490100100002DM8BP00                         07357711595A1                           030                   000000                                 S         P    SF                                           0407100703    313903                2  10111111000 03151618SS 1008              213431235124321451235424121543123431423543234323152341              +H+++G++B++F+B++CHDB+H++BFBJBFC+++C++J++A++++F++++B++J              AGBHAJCJAHBHAACGDJBACJBFDHAFCHBFBADGCGAHDAAGDHBHAJAHDG                                                                                                                                                                                    1516084901001SS1039030        1516084901001SS1146150        1516084901001SS1041990                                                                                                                     .
15160904084901001DICKINSON ISD  DICKINSON H S  AVILA-OROZCO   ANGEL     C629722996M06202000 110000H260    000 0     00   291062    101209163  008490100100002DJ8FH00                         09463755128A1                           030                   000000                                 S         P    SF                                           0810030404    293832                2  1011111000                               213431235124321451235424121543123431423543234323152341              ++CF+++F+++FB++++++BAF+GB+*HDG++C*C+++++C*DH+++J++CG+F              AGBHAJCJAHBHAACGDJBACJBFDHAFCHBFBADGCGAHDAAGDHBHAJAHDG                                                                                                                                                                                    1516084901001SS1038320        1516084901001SS1038020        1516084901001SS0035280                                                                                                                     .
15161004084901001DICKINSON ISD  DICKINSON H S  AYALA          JULISSA   A295044852F03042000 100001H060    000 0     00   286864    101208945  008490100100002DH9SZ00                         06631412463A1                           030                   000000                                 S         P    SF                                           0509050703    293832                1  1011111000                               213431235124321451235424121543123431423543234323152341              +JA+++DHDGCJ++B++++BA+++++BJAJA+D+B+A+++BB+J++++D+CF++              AGBHAJCJAHBHAACGDJBACJBFDHAFCHBFBADGCGAHDAAGDHBHAJAHDG                                                                                                                                                                                    1516084901001SS1038320        1515084901001SS1043820        1515084901001SS1038250        1516084901001SS1038310                                                                                       .
15161004084901001DICKINSON ISD  DICKINSON H S  AZ GARCIA      MYNOR     FS15704505M09271996 100001H160    C03 0     01   2104508   101208947  00849010010000268C7N00                         08938849945A1                           030                   000001                                 S         O    LF                                           0607050303    243657                1  1011100000                 1203201500121 213431235124321451235424121543123431423543234323152341              ++AF+FAHCFCF++++C++B+GC++FBHA+++CBAJ+JB+A++FBG++C++JA+              AGBHAJCJAHBHAACGDJBACJBFDHAFCHBFBADGCGAHDAAGDHBHAJAHDG                                                                                                                                                                                    1516084901001LS1036570        1516084901001LS1035500        1515084901001SS0031320        1516084901001SS0030000                                                                                       .
15160904084901001DICKINSON ISD  DICKINSON H S  BACON          BRADLEY   T642766446M07162001 000001W060    000 0     00   287429    101209167  008490100100002DMV6N00                         02124932764A1                           030                   000000                                 S         P    SF                                           0711071002    374127                2  10111111111 03151599SS 1008              213431235124321451235424121543123431423543234323152341              +HA++++H+G++++++B++BB++++F+G+F++++A+++D+B++J++++DF+++J              AGBHAJCJAHBHAACGDJBACJBFDHAFCHBFBADGCGAHDAAGDHBHAJAHDG                                                                                                                                                                                    1516084901001SS1041270        1516084901001SS1041910        1516084901001SS1040970                                                                                                                     .
15160904084901001DICKINSON ISD  DICKINSON H S  BAHENA         PRISCILLA J639727883F08312000 110000H160    000 0     01   283391    101209177  008490100100002DMHRZ00                         08516931269A1                           030                   000000                                 S         P    SF                                           0711101106    454512                2  11111111112 03151676SS 1008              213431235124321451235424121543123431423543234323152341              +++++++++G++B+++++DB++++B+B+++++++++++D+++++++++B++G++              AGBHAJCJAHBHAACGDJBACJBFDHAFCHBFBADGCGAHDAAGDHBHAJAHDG                                                                                                                                                                                    1516084901001SS1145120        1516084901001SS1153160        1516084901001SS1040330                                                                                                                     .
15161004084901001DICKINSON ISD  DICKINSON H S  BAKER          LEVI      C642648816M01211999 000001W160    000 0     01   288973    100709224  008490100100002DMVPQ00                         05458619943A1                           030                   000100                                 S         P    SR                                           0305020401    153311                1  0000000000                               213431235124321451235424121543123431423543234323152341              ++AGCFB+CF++BBA+B+ABB++HAJBGAFDHABBH+JC+AB+HA+CFCH+FC+              AGBHAJCJAHBHAACGDJBACJBFDHAFCHBFBADGCGAHDAAGDHBHAJAHDG                                                                                                                                                                                    1516084901001SS0033110        1516084901001SS0033380        1516084901001SS0031120        1516084901001SS0029690                                                                                       .
15160904084901001DICKINSON ISD  DICKINSON H S  BAKER          MADISEN   G636729325F08052000 000001W260    000 0     01   283680    101209182  008490100100002Y5VMS00                         07699788656A1                           030                   000000                                 S         P    SF                                           0609091003    374127                2  10111111111 03151618SS 1008              213431235124321451235424121543123431423543234323152341              +++++++FBGC+++++A+CB++++A+B+++A+C++++FB+++++A+++DH+J++              AGBHAJCJAHBHAACGDJBACJBFDHAFCHBFBADGCGAHDAAGDHBHAJAHDG                                                                                                                                                                                    1516084901001SS1041270        1516084901001SS1042810        1516084901001SS1042350                                                                                                                     .
15161004084901001DICKINSON ISD  DICKINSON H S  BALE           DESTINY   C636687410F10061999 100001H060    000 0     01   286296    100709223  008490100100002T74MJ00                         02655755413A1                           030                   000000                                 S         P    SR                                           0403050102    153311                1  0000000000                               213431235124321451235424121543123431423543234323152341              B+CJ+G+F++AJ++BFCHDBBHCGCGBHAFCHCB+++FD+ABBFB+A+DG+GA+              AGBHAJCJAHBHAACGDJBACJBFDHAFCHBFBADGCGAHDAAGDHBHAJAHDG                                                                                                                                                                                    1516084901001SS0033110        1315084901001SS1037750        1516084901001SS0033990        1516084901001SS0037140                                                                                       .
15160904084901001DICKINSON ISD  DICKINSON H S  BARBOZA        JESSICA   M627749884F10262000 100001H160    000 0     00   285824    101209200  008490100100002DJY6P00                         07341898771A1                           030                   000000                                 S         P    SF                                           0709131105    454512                2  11111111112 03151717SS 1008              213431235124321451235424121543123431423543234323152341              +++++++++G+++++++H++++D+++B++++H+++++F+J+++++G++D+++++              AGBHAJCJAHBHAACGDJBACJBFDHAFCHBFBADGCGAHDAAGDHBHAJAHDG                                                                                                                                                                                    1516084901001SS1145120        1516084901001SS1043780        1516084901001SS1043880                                                                                                                     .
15161004084901001DICKINSON ISD  DICKINSON H S  BARRERA        MARCO     A642686424M11291999 110000H060    000 0     01   284173    100709351  008490100100002DMVWC00                         08446745224A1                           030                   000000                                 S         P    SF                                           0707081003    354050                1  1011111111                               213431235124321451235424121543123431423543234323152341              +++++++F+G++B*++++AB++++A+BJAJ+J+++++++J++CF+G++BGB+++              AGBHAJCJAHBHAACGDJBACJBFDHAFCHBFBADGCGAHDAAGDHBHAJAHDG                                                                                                                                                                                    1516084901001SS1040500        1515084901001SS1038890        1516084901001SS0034250        1516084901001SS0034890                                                                                       .
15161004084901001DICKINSON ISD  DICKINSON H S  BARROW         KENDRIELL J659012534F10011999 000100B160    000 0     01   098450    100709506  0084901001000023QPF900                         03517251542A1                           030                   000000                                 S         P    SR                                           0506070402    243657                1  1011100000                               213431235124321451235424121543123431423543234323152341              +JCF+++++JDFBB+HCGD+B+CH+G+G+JA+++C+A++++++HB++JDHDJAH              AGBHAJCJAHBHAACGDJBACJBFDHAFCHBFBADGCGAHDAAGDHBHAJAHDG                                                                                                                                                                                    1516084901001SS1036570        1515084901001SS1040750        1515084901001SS1037500        1516084901001SS0036290                                                                                       .
15160904084901001DICKINSON ISD  DICKINSON H S  BARSOCK        ANDGELQUE M629709309F01142000 000100B060    000 0     01   2105567   101209222  008490100100002DJ8CG00                         05389975634A1                           030                   000000                                 S         P    SF                                           0609060603    303850                2  10111111000 03151570SS 0008              213431235124321451235424121543123431423543234323152341              ++C++GDH+FCJB+B+C++B+++++++HBJA+++B+A+++BB+J++++DFD+A+              AGBHAJCJAHBHAACGDJBACJBFDHAFCHBFBADGCGAHDAAGDHBHAJAHDG                                                                                                                                                                                    1516084901001SS1038500        1516084901001SS1041070        1516084901001SS1038500                                                                                                                     .
15160904084901001DICKINSON ISD  DICKINSON H S  BARTON         WILLIAM   T426894544M09122000 000001W160    000 0     00   0100860   101209226  008490100100002KB67V00                         02512945723A1                           030                   000000                                 S         P    SF                                           0808100904    394210                2  10111111111 03151599SS 1008              213431235124321451235424121543123431423543234323152341              +++++HBF+G++++++++CBB++++++HA+C++BB++F+++++J++++++B+++              AGBHAJCJAHBHAACGDJBACJBFDHAFCHBFBADGCGAHDAAGDHBHAJAHDG                                                                                                                                                                                    1516084901001SS1042100        1516084901001SS1146150        1516084901001SS0036330                                                                                                                     .
15160904084901001DICKINSON ISD  DICKINSON H S  BATCHAN        ANDRIANNA N635766032F05202001 000100B060    000 0     00   0108481   101209232  001490900200002NJ98Y00                         02643835271A1                           030                   000000                                 S         P    SF                                           0610101003    394210                2  10111111111 03151618SS 1008              213431235124321451235424121543123431423543234323152341              +J+++HD++GC+B+++A+++D+++++++A++++++J+++++B+J+F++DF++++              AGBHAJCJAHBHAACGDJBACJBFDHAFCHBFBADGCGAHDAAGDHBHAJAHDG                                                                                                                                                                                    1516084901001SS1042100        1516084901001SS1040270        1516084901001SS1038880                                                                                                                     .
15160904084901001DICKINSON ISD  DICKINSON H S  BAUTISTA       EDUARDO    643729307M10022000 110000H260    000 0     01   286054    101209235  008490100100002DMY6X00                         07527325127A1                           030                   000000                                 S         P    SF                                           0509090805    364088                2  10111111111 03151656SS 1008              213431235124321451235424121543123431423543234323152341              +HDG+++++F++B+++++++++++CGBJA+D+AB+++JB++++++J++D+B+++              AGBHAJCJAHBHAACGDJBACJBFDHAFCHBFBADGCGAHDAAGDHBHAJAHDG                                                                                                                                                                                    1516084901001SS1040880        1516084901001SS1041070        1516084901001SS1039250                                                                                                                     .
15160904084901001DICKINSON ISD  DICKINSON H S  BAUTISTA       KATALINA  A630727800F06282000 110000H160    000 0     01   286315    100709297  008490100100002SNT8D00                         02599231175A1                           030                   000000                                 S         P    SR                                           0306030302    173395                1  0000000000                               213431235124321451235424121543123431423543234323152341              +*++CF+G+*+FBB+F++++DGD+CJBHDF+GA+BJAFCFB++HAGAJCG+JCJ              AGBHAJCJAHBHAACGDJBACJBFDHAFCHBFBADGCGAHDAAGDHBHAJAHDG                                                                                                                                                                                    1516084901001SS0033950        1515084901001SS1037810        1516084901001SS0036330        1516084901001SS0035730                                                                                       .
15160904084901001DICKINSON ISD  DICKINSON H S  BEARDEN        BRENDAN   A630749320M11212000 100001H060    000 0     00   285783    101209248  008490100100002DKCRP00                         01552244334A1                           030                   000000                                 S         P    SF                                           0509100804    364088                2  10111111111 03151686SS 1008              213431235124321451235424121543123431423543234323152341              +++G+++G+G+F++D+++*++H++AGBG++++++CJ+J+J+++F+J++B+++++              AGBHAJCJAHBHAACGDJBACJBFDHAFCHBFBADGCGAHDAAGDHBHAJAHDG                                                                                                                                                                                    1516084901001SS1040880        1516084901001SS1042350        1516084901001SS0036330                                                                                                                     .
15160904084901001DICKINSON ISD  DICKINSON H S  BECKETT        CIERRA    R228899551F03202001 000100B060    000 0     01   0107118   101209254  00849010010000248JRB00                         09822659563A1                           030                   000000                                 S         P    SF                                           0405030102    153311                2  00000000000 03151509SS 0008              213431235124321451235424121543123431423543234323152341              +HCJCGDHD++JCB++CHCB+G+H+JBGD+DGDBCFBJBFBB++BJC++++FBH              AGBHAJCJAHBHAACGDJBACJBFDHAFCHBFBADGCGAHDAAGDHBHAJAHDG                                                                                                                                                                                    1516084901001SS0033110        1516084901001SS1041480        1516084901001SS1041300                                                                                                                     .
15160904084901001DICKINSON ISD  DICKINSON H S  BENITEZ        GUADALUPE S626709663F12131999 110000H060    000 0     01   285080    101209257  008490100100002DJV6F00                         08896499844A1                           030                   000000                                 S         P    SF                                           0806050301    233625                2  10111000000 03151647SS 1008              213431235124321451235424121543123431423543234323152341              +++G++AHCF+++B+FBGABAHC+++BJBF+HA+B+B+C+CB++AG+J+GB+C+              AGBHAJCJAHBHAACGDJBACJBFDHAFCHBFBADGCGAHDAAGDHBHAJAHDG                                                                                                                                                                                    1516084901001SS1036250        1516084901001SS1035800        1516084901001SS0036330                                                                                                                     .
15160904084901001DICKINSON ISD  DICKINSON H S  BENSON         SKYLAR    T628743884F10292000 000100B160    000 0     00   098219    101209266  008490100100062DJ4X700                         05399124955A1                           030                   000000                                 S         P    SF                                           0711100903    404255                2  10111111111 03151700SS 1008              213431235124321451235424121543123431423543234323152341              +FD++F+++G++B+++CG++B++++++GA+++ABC++J++++++++++++++++              AGBHAJCJAHBHAACGDJBACJBFDHAFCHBFBADGCGAHDAAGDHBHAJAHDG                                                                                                                                                                                    1516084901001SS1042550        1516084901001SS1040670        1516084901001SS1041300                                                                                                                     .
15161104084901001DICKINSON ISD  DICKINSON H S  BENSON         TRINITY   Y633626490F06041998 000100B160    000 0     01   0104043   100709266  008490100100002DKRFY00                         03149729793A1                           030                   000000                                 S         P    SR                                           0710080701    333975                1  1011111110                               213431235124321451235424121543123431423543234323152341              ++AJ++B++++JC+++A+++B+++A++JD+++++BJ+F+GCB+J+G++CG+++F              AGBHAJCJAHBHAACGDJBACJBFDHAFCHBFBADGCGAHDAAGDHBHAJAHDG                                                                                                                                                                                    1516084901001SS1039750        1516084901001SS1035500        1516084901001SS1043480        1315084901001SS1038880        1516084901001SS0034020                                                         .
15160904084901001DICKINSON ISD  DICKINSON H S  BERGEN         ETHAN     S641727129M09162000 000001W060    000 0     01   285875    101209271  008490100100002DMRJT00                         07157794144A1                           030                   000000                                 S         P    SF                                           0506050404    243657                2  10111000000 03151609SS 1008              213431235124321451235424121543123431423543234323152341              ++AJ++DF+F+F+++H+H+BAHC+C+B+AJCJABB++J+GCB+H+FC+++D++F              AGBHAJCJAHBHAACGDJBACJBFDHAFCHBFBADGCGAHDAAGDHBHAJAHDG                                                                                                                                                                                    1516084901001SS1036570        1516084901001SS1042350        1516084901001SS0035800                                                                                                                     .
15160904084901001DICKINSON ISD  DICKINSON H S  BERNAL         KENDALL   E635766473F05252001 100001H060    000 0     00   285564    101209276  008490100100002DKZCP00                         09379225237A1                           030                   000000                                 S         P    SF                                           0209040603    243657                2  10111000000 03151637SS 1008              213431235124321451235424121543123431423543234323152341              +FA++++H+GCFD+A+++CBB+++A*BHAFC+C+BHA++F*B+F++++B++FCJ              AGBHAJCJAHBHAACGDJBACJBFDHAFCHBFBADGCGAHDAAGDHBHAJAHDG                                                                                                                                                                                    1516084901001SS1036570        1516084901001SS1038500        1516084901001SS1041640                                                                                                                     .
15160904084901001DICKINSON ISD  DICKINSON H S  BERRIOS        JAYRON    S632688024M09021999 110000H160    000 0     01   284841    100709338  008490100100002DKNHM00                         07814139945A1                           050                   000000                                 S         P    SR                                           0803050301    203500                1  1010000000                               213431235124321451235424121543123431423543234323152341              +F+JB+BFB++FCB++C+CBBFAJ+GB++++JABC+BJCFA+++A+CJ+FCG+J              AGBHAJCJAHBHAACGDJBACJBFDHAFCHBFBADGCGAHDAAGDHBHAJAHDG                                                                                                                                                                                    1516084901001SS1035000        1515084901001SS1037810        1516084901001SS1039250        1516084901001SA0008450                                                                                       .
15160904084901001DICKINSON ISD  DICKINSON H S  BETTALE        PRESTON   A764036393M09282000 000001W160    S00 1     01   2103053   101209289  008490100100002ZVGWX00                         01947732455A1                           030                   100100                                 S         O    AF                                           0409070805    333975                2  10111111101 03151599AS 1008              213431235124321451235424121543123431423543234323152341              ++CG+F+++JC+B++++++B+++GA+BJ+FA+++A++H++C++J++CJB++++J              AGBHAJCJAHBHAACGDJBACJBFDHAFCHBFBADGCGAHDAAGDHBHAJAHDG                                                                                                                                                                                    1516084901001AS1039750        1516084901001AS1035890        1516084901001AS0036640                                                                                                                     .
15160904084901001DICKINSON ISD  DICKINSON H S  BLAMER         WYATT     J384251773M12282000 000001W060    000 0     00   0108588   101209302  0             3T8DBV00                         0          A1                           030                   000000                                 S         P    SF                                           0509080706    354050                2  1011111111                               213431235124321451235424121543123431423543234323152341              +J+G+H+G++++++D++++B+G++++B+++D+C+BHDH++B+DF+++F++B+++              AGBHAJCJAHBHAACGDJBACJBFDHAFCHBFBADGCGAHDAAGDHBHAJAHDG                                                                                                                                                                                    1516084901001SS1040500                                      1516084901001SS1039400                                      1516084901001SS1038190                                                         .
15161004084901001DICKINSON ISD  DICKINSON H S  BLANKS         ERNEST    D435994835M01291999 000100B160    000 0     01   2101070   100709336  008490100100002398HP00                         09227674667A1                           030                   000000                                 S         P    SR                                           0204020104    133221                1  0000000000                               213431235124321451235424121543123431423543234323152341              BFCJ+HAG+GDJ+B+F+HABDFDGA+B+BFAHABBFDJB+AB+HBJ+FDG+F++              AGBHAJCJAHBHAACGDJBACJBFDHAFCHBFBADGCGAHDAAGDHBHAJAHDG                                                                                                                                                                                    1516084901001SS0032210        1515084901001SS1035260        1516084901001SS0035020        1516084901001SS0033770                                                                                       .
15160904084901001DICKINSON ISD  DICKINSON H S  BLANKS         PRECIOUS  A664038296F05022001 000100B160    000 0     01   0101158   101209317  0084901001000024VJDG00                         04424287122A1                           030                   000000                                 S         P    SF                                           0606080402    263727                2  10111100000 03151609SS 1008              213431235124321451235424121543123431423543234323152341              +JDJ+GD+DG+JC+++++DB+G++CJ+G+++++BC+BH+GBB++AJD++FB++J              AGBHAJCJAHBHAACGDJBACJBFDHAFCHBFBADGCGAHDAAGDHBHAJAHDG                                                                                                                                                                                    1516084901001SS1037270        1516084901001SS1146880        1516084901001SS1039400                                                                                                                     .
15161004084901001DICKINSON ISD  DICKINSON H S  BOATRIGHT      SETH      M640649750M12041998 000001W160    000 1     01   283194    100709508  00849010010000268DFQ00                         02546252186A1                           030                   100000                                 S         P    SR                                           0302020302    123172                1  0000000000                               213431235124321451235424121543123431423543234323152341              ++D+DHBG+GCGDBDHCGABBFCJ+FBJ+GDJABBHBH+JBB+FCGCGD+B+++              AGBHAJCJAHBHAACGDJBACJBFDHAFCHBFBADGCGAHDAAGDHBHAJAHDG                                                                                                                                                                                    1516084901001SS0031720        1515084901001SS1039250        1515084901001SS1037860        1516084901001SS1041500                                                                                       .
15160904084901001DICKINSON ISD  DICKINSON H S  BOGOTT         CAMERON   D627746153M10262000 000001W060    000 0     00   085232    101209328  008490100100002DJY5V00                         07516485764A1                           030                   000000                                 S         P    SF                                           0609071004    364088                2  10111111111 03151676SS 1008              213431235124321451235424121543123431423543234323152341              +F++++++++++++++C+C+++++B+BJAFD+C+A++HC++++++JDFD++J++              AGBHAJCJAHBHAACGDJBACJBFDHAFCHBFBADGCGAHDAAGDHBHAJAHDG                                                                                                                                                                                    1516084901001SS1040880        1516084901001SS1041910        1516084901001SS1040970                                                                                                                     .
15160904084901001DICKINSON ISD  DICKINSON H S  BONILLA        JOSALIN   M629761078F04062001 110000H160    000 0     01   2103485   101209333  008490100100002SNGJH00                         03275172719A1                           060                   000000                                 S         P    SF                                           0306090602    263727                2  10111100000 03151686SS 1008              213431235124321451235424121543123431423543234323152341              +J+JBH+++F++B+AJCGA+++DGCFBJ++AG++C+DF+JA++F+++J+GD+++              AGBHAJCJAHBHAACGDJBACJBFDHAFCHBFBADGCGAHDAAGDHBHAJAHDG                                                                                                                                                                                    1516084901001SS1037270        1516084901001SS1035500        1516084901001SS0032120                                                                                                                     .
15160904084901001DICKINSON ISD  DICKINSON H S  BOOKER         TARIQ     A636720470M08052000 000100B160    000 1     01   0104492   100709228  008490100100002SQT3G00                         03831329869A1                           040                   100100                                 S         O    AR                                           0604030402    193473                1  0000000000                               213431235124321451235424121543123431423543234323152341              B+DJ++BFBG+FCB+++GDB+++JBGBH+++GABCJ++CFBBBHC++J+HDGC+              AGBHAJCJAHBHAACGDJBACJBFDHAFCHBFBADGCGAHDAAGDHBHAJAHDG                                                                                                                                                                                    1516084901001AS0034730        1516084901001AS0032120        1516084901001AS0033180        1516084901001AS0031060                                                                                       .
15160904084901001DICKINSON ISD  DICKINSON H S  BOYNTON        RIVER     B639742408M01192001 000001W060    000 0     01   285833    101209343  008490100100002DMHS900                         05986686314A1                           040                   000000                                 S         P    SF                                           0406020403    193473                2  00000000000 03151583SS 1008              213431235124321451235424121543123431423543234323152341              +J++B++H+GCJB+BH+FAB++C+A+BHBG+J+BA+DHDJCBDHAG+J+F+J+J              AGBHAJCJAHBHAACGDJBACJBFDHAFCHBFBADGCGAHDAAGDHBHAJAHDG                                                                                                                                                                                    1516084901001SS0034730        1516084901001SS0034630        1516084901001SS0030280                                                                                                                     .
15161004084901001DICKINSON ISD  DICKINSON H S  BRADEN         LINDSAY   R444135764F08151999 000001W260    000 0     01   2107981   100709309  0084901001000024BGQK00                         09566319975A1                           030                   000000                                 S         P    SR                                           0503040402    183435                1  0000000000                               213431235124321451235424121543123431423543234323152341              B+++B+AH+F+F+BAJC++BDG+GCGBGBG+GDBA++JB+ABC++GA+CHBJ+F              AGBHAJCJAHBHAACGDJBACJBFDHAFCHBFBADGCGAHDAAGDHBHAJAHDG                                                                                                                                                                                    1516084901001SS0034350        1515084910003SS1040000        1315084901001SS1037750        1516084901001SS0035170                                                                                       .
15160904084901001DICKINSON ISD  DICKINSON H S  BRANUM         SIERRA    L642747979F02202001 000001W060    000 0     00   085817    102475520  017590500100002QSRJG00                         08188456292A1                           030                   000000                                 S         P    SF                                           0205030402    163354                2  00000000000 03151628SS 1008              213431235124321451235424121543123431423543234323152341              +FA++GDHDG+FC+BJ+FCBBHAGCF+JD+A+C+C+DH+G+B+HBFCGB+DF+H              AGBHAJCJAHBHAACGDJBACJBFDHAFCHBFBADGCGAHDAAGDHBHAJAHDG                                                                                                                                                                                    1516084901001SS0033540                                      1516084901001SS0035800                                                                                                                     .
15160904084901001DICKINSON ISD  DICKINSON H S  BREAUX         JERRICK   A642684616M10301999 000100B160    000 0     01   2101263   100709292  008490100100002DMVTJ00                         03512989756A1                           030                   000000                                 S         P    SR                                           0404020302    153311                1  0000000000                               213431235124321451235424121543123431423543234323152341              +FD+B+B++++J+BBFAHDBAGC+CFBHAG+HD*BJ++CGA*+FBFCJC+BGC+              AGBHAJCJAHBHAACGDJBACJBFDHAFCHBFBADGCGAHDAAGDHBHAJAHDG                                                                                                                                                                                    1516084901001SS0033110        1515084901001SS1040000        1315084901001SS1037920        1516084901001SS1040000                                                                                       .
15160904084901001DICKINSON ISD  DICKINSON H S  BRINKERHOFF    JULENE    C425893246F06202000 000001W160    000 1     01   2103651   102487680  0084901001000025PBQ800                         01637671199A1                           030                   100100                                 S         O    AF                                           0503040301    163354                2  00000000000 03151390SS 0008              213431235124321451235424121543123431423543234323152341              B+CJ+HBHDJ+GDBAFCHCBDH+GA+BHDG+GDBC++HD+++D+B+DG+HCG++              AGBHAJCJAHBHAACGDJBACJBFDHAFCHBFBADGCGAHDAAGDHBHAJAHDG                                                                                                                                                                                    1516084901001AS0033540        1516084901001AS0033490        1516084901001AS0030380                                                                                                                     .
15160904084901001DICKINSON ISD  DICKINSON H S  BRITT          HUNTER    B641725492M09072000 000001W060    000 0     00   2100937   101209353  008490100100002S6WCN00                         06998238223A1                           030                   000000                                 S         P    SF                                           0606060702    273775                2  10111110000 03151599SS 1008              213431235124321451235424121543123431423543234323152341              ++D+BHDF+F++C+A+C++++GDJ+GBHA+D++++++FCFB++++FCG+GBJ++              AGBHAJCJAHBHAACGDJBACJBFDHAFCHBFBADGCGAHDAAGDHBHAJAHDG                                                                                                                                                                                    1516084901001SS1037750        1516084901001SS1042350        1516084901001SS1041990                                                                                                                     .
15160904084901001DICKINSON ISD  DICKINSON H S  BROWN          JAY       T630706657M01302000 000001W160    000 1     01   096833    102487683  008490100100002SNTY300                         06712861799A1                           030                   100100                                 S         O    AF                                           0509040401    233625                2  10111000000 03151590AS 1008              213431235124321451235424121543123431423543234323152341              +++JB++H+G+FB+++BHDBBG+GC+BG++++C+BFB+CFB++HC+CGCGBG++              AGBHAJCJAHBHAACGDJBACJBFDHAFCHBFBADGCGAHDAAGDHBHAJAHDG                                                                                                                                                                                    1516084901001AS1036250        1516084901001AS1037000        1516084901001AS0033450                                                                                                                     .
15161004084901001DICKINSON ISD  DICKINSON H S  BUCY           CHRISTOPHEM632728170M07132000 000001W260    000 1     00   2107964   100709305  008490100100002VQYCR00                         04882837919A1                           030                   100100                                 S         O    AR                                           0702040302    183435                1  0000000000                               213431235124321451235424121543123431423543234323152341              B+A+++A++++J+BDJBHCB+HCGBF+J+JAGABA+AFCJAB+JAFCG+GB+++              AGBHAJCJAHBHAACGDJBACJBFDHAFCHBFBADGCGAHDAAGDHBHAJAHDG                                                                                                                                                                                    1516084901001AS0034350        1615084910009AS1035510        1315084901001AS0032490        1516084901001AS0031650                                                                                       .
15160904084901001DICKINSON ISD  DICKINSON H S  BURCHFIELD     LAUREN    N638743106F01152001 000001W160    000 0     01   087298    101209386  008490100100002DMCVN00                         01741149428A1                           030                   000000                                 S         P    SF                                           0406070503    253700                2  10111100000 03151637SS 1008              213431235124321451235424121543123431423543234323152341              +F++++AF+G++D++H+H+BAHAGBGBH+FA+++C+BH++B+++AJC++GCJ+F              AGBHAJCJAHBHAACGDJBACJBFDHAFCHBFBADGCGAHDAAGDHBHAJAHDG                                                                                                                                                                                    1516084901001SS1037000        1516084901001SS1038760        1516084901001SS0036870                                                                                                                     .
15160904084901001DICKINSON ISD  DICKINSON H S  CADENA         MARINA    E635744614F12242000 100001H060    000 0     00   285559    101209404  008490100100002DKY9N00                         01667826255A1                           030                   000000                                 S         P    SF                                           0504040403    203500                2  00100000000 03151618SS 1008              213431235124321451235424121543123431423543234323152341              +JDG++AFD+CFB+++CGC++GD++FB++FA++BBHAH+JAB+HAJCFB+CG++              AGBHAJCJAHBHAACGDJBACJBFDHAFCHBFBADGCGAHDAAGDHBHAJAHDG                                                                                                                                                                                    1516084901001SS0035000        1516084901001SS1038760        1516084901001SS1039400                                                                                                                     .
15160904084901001DICKINSON ISD  DICKINSON H S  CALDERAS       CHRISTOPHEJ636760616M05302001 100001H060    000 0     01   088083    100822634  010190800100002DK5GM00                         06392413197A1                           030                   000000                                 S         P    SF                                           0810070803    364088                2  10111111111 03151590SS 1008              213431235124321451235424121543123431423543234323152341              ++D++F++B+++B+++C++B+++++GB+BFC+D+++BJC+B++++++J+G++++              AGBHAJCJAHBHAACGDJBACJBFDHAFCHBFBADGCGAHDAAGDHBHAJAHDG                                                                                                                                                                                    1516084901001SS1040880                                      1516084901001SS1039250                                                                                                                     .
15161004084901001DICKINSON ISD  DICKINSON H S  CALDWELL       DE'YONA   M634721121F07212000 010101T060    000 0     01   283161    100709507  008490100100002DKVTZ00                         07868597747A1                           030                   000000                                 S         P    SR                                           0404020402    163354                1  0000000000                               213431235124321451235424121543123431423543234323152341              D+A+B++GDJ+FBB+++GABB+CG+JBJAFA+ABAHB++JC+BH+JDGC+BJCH              AGBHAJCJAHBHAACGDJBACJBFDHAFCHBFBADGCGAHDAAGDHBHAJAHDG                                                                                                                                                                                    1516084901001SS0033540        1515084901001SS1039620        1515084901001SS1041940        1516084901001SS1041850                                                                                       .
15160904084901001DICKINSON ISD  DICKINSON H S  CALDWELL       TIARA     J632760357F04262001 000100B260    000 0     01   085804    101209408  008490100100002DKNR400                         02775271871A1                           030                   000000                                 S         P    SF                                           0608100805    374127                2  10111111111 03151665SS 1008              213431235124321451235424121543123431423543234323152341              +++++++H+F++++A++HD++++++F+HA+AHD+B+B+++++++AG++C+B+++              AGBHAJCJAHBHAACGDJBACJBFDHAFCHBFBADGCGAHDAAGDHBHAJAHDG                                                                                                                                                                                    1516084901001SS1041270        1516084901001SS1035800        1516084901001SS1037750                                                                                                                     .
15160904084901001DICKINSON ISD  DICKINSON H S  CAMILO MONTES  CLAUDIA   LS12003144F05281998 100001H160    C03 0     01   0106053   101209413  00849010010000263TNC00                         01315749521A1                           030                   000001                                 S         O    LF                                           0603020200    133221                2  0000000000                 0203201500121 213431235124321451235424121543123431423543234323152341              ++AJB+AGC+CJBBDHBF+BAHDG+FBGB++JA+CFBH+FABCFCJDGBF+G++              AGBHAJCJAHBHAACGDJBACJBFDHAFCHBFBADGCGAHDAAGDHBHAJAHDG                                                                                                                                                                                    1516084901001LS0032210                                      1516084901001SS0031650                                                                                                                     .
15160904084901001DICKINSON ISD  DICKINSON H S  CAMPOS MONJARASLUZ       M792047692F09031998 110000H160    C02 0     01   2103003   100709486  0084901001000025K9BR00                         04136939477A1                           030                   000001                                 S         O    LR                                           0507030403    223585                1  1011000000                 1304201400111 213431235124321451235424121543123431423543234323152341              ++AJDHBG+GAJC+++CGCBAG++++BHAJAJ++C+AJC+BB++AF++B++F++              AGBHAJCJAHBHAACGDJBACJBFDHAFCHBFBADGCGAHDAAGDHBHAJAHDG                                                                                                                                                                                    1516084901001LS1035850        1516084901001LS0034190        1515084901001SS0030320        1516084901001SS0026300                                                                                       .
15161004084901001DICKINSON ISD  DICKINSON H S  CANALES        GLORIA    A630702005F01132000 100001H160    000 1     01   283162    100709497  008490100100002DKCFN00                         04939678164A1                           030                   100000                                 S         P    SR                                           0207010604    203500                1  1010000000                               213431235124321451235424121543123431423543234323152341              +FC++HBF++++BBAF+HAB++++B+B+DF+GD+CJB+CGAB+JBFCJBG+G+J              AGBHAJCJAHBHAACGDJBACJBFDHAFCHBFBADGCGAHDAAGDHBHAJAHDG                                                                                                                                                                                    1516084901001SS1035000        1515084901001SS1038890        1515084901001SS1038700        1516084901001SS1041500                                                                                       .
15160904084901001DICKINSON ISD  DICKINSON H S  CANARY         CORBIN    E664019384M07102000 000001W060    000 0     00   2105256   101209434  00849010010000263TJV00                         06437464216A1                           030                   000000                                 S         P    SF                                           0605040403    223585                2  10110000000 03151599SS 1008              213431235124321451235424121543123431423543234323152341              ++A+C++G+G+FCBDJ+++B+FCG+GBG++AHC+++DJBGA++H+GA++FBGBF              AGBHAJCJAHBHAACGDJBACJBFDHAFCHBFBADGCGAHDAAGDHBHAJAHDG                                                                                                                                                                                    1516084901001SS1035850        1516084901001SS1039510        1516084901001SS1040330                                                                                                                     .
15160904084901001DICKINSON ISD  DICKINSON H S  CANTU          CARLOS     630740174M11132000 100001H160    000 0     01   286261    101209439  008490100100002DKCNS00                         09461531613A1                           030                   000000                                 S         P    SF                                           0406030302    183435                2  00000000000 03151599SS 1008              213431235124321451235424121543123431423543234323152341              +++F+++H+JC+D++JBF+B++CGAGBJBF+GABBF+H+JCB+JBG+JDFCFCJ              AGBHAJCJAHBHAACGDJBACJBFDHAFCHBFBADGCGAHDAAGDHBHAJAHDG                                                                                                                                                                                    1516084901001SS0034350        1516084901001SS1037750        1516084901001SS0031390                                                                                                                     .
15161104084901001DICKINSON ISD  DICKINSON H S  CARLOS         BRIANNA   N638621093F07121998 110000H160    000 1     01   289668    100709260  008490100100002DMB9S00                         05742155387A1                           030                   100100                                 S         O    AR                                           0606060801    273775                1  1011111000                               213431235124321451235424121543123431423543234323152341              B+DGD+++DFD+D+++C++BA+++CG+J+JAG+BBF+HB+B++++G+++HB++J              AGBHAJCJAHBHAACGDJBACJBFDHAFCHBFBADGCGAHDAAGDHBHAJAHDG                                                                                                                                                                                    1516084901001AS1037750        1516084901001AS0033050        1516084901001AS0031540        1516084901001AS0029510        1516084901001AS0034000                                                         .
15160904084901001DICKINSON ISD  DICKINSON H S  CARMAN         AARON     J628767895M04042001 000001W160    000 0     01   285818    101209448  008490100100002SM5GT00                         03575834237A1                           030                   000000                                 S         P    SF                                           0306040602    213550                2  10110000000 03151570SS 0008              213431235124321451235424121543123431423543234323152341              +JD++++G+J+G+++++HABD+C+BJBGAFCGA++HAJCG+++FCGDGBH+JC+              AGBHAJCJAHBHAACGDJBACJBFDHAFCHBFBADGCGAHDAAGDHBHAJAHDG                                                                                                                                                                                    1516084901001SS1035500        1516084901001SS0033380        1516084901001SS0035280                                                                                                                     .
15160904084901001DICKINSON ISD  DICKINSON H S  CARREON        DAMIAN    A630726180M06272000 100001H160    000 0     01   2105275   101209458  008490100100002R7SQ400                         09191664896A1                           030                   000000                                 S         P    SF                                           0303010402    133221                2  00000000000 03151618SS 1008              213431235124321451235424121543123431423543234323152341              +FA++++H+FDJC+A+A+AB+GCHAGBJAGAGDBC++FDFCBBFCJCJDGCF+J              AGBHAJCJAHBHAACGDJBACJBFDHAFCHBFBADGCGAHDAAGDHBHAJAHDG                                                                                                                                                                                    1516084901001SS0032210        1516084901001SS1038500        1516084901001SS0033990                                                                                                                     .
15160904084901001DICKINSON ISD  DICKINSON H S  CARRILLO       DAVID     R643722373M09302000 100001H960    000 0     00   0108870   102732179  010191202400002VZNR300                         07915286757A1                           030                   000000                                 S         P    SF                                           0301020502    133221                2  00000000000 03151475SS 0008              213431235124321451235424121543123431423543234323152341              BFDJBHDFBFCGCBD+++AB++A+++BJ+F+G+BBJAJCFCBDFBFA+DHBJ+H              AGBHAJCJAHBHAACGDJBACJBFDHAFCHBFBADGCGAHDAAGDHBHAJAHDG                                                                                                                                                                                    1516084901001SS0032210        1516084901001SS0034230        1516084901001SS0035800                                                                                                                     .
15160904084901001DICKINSON ISD  DICKINSON H S  CASAS          MARCEL     629743904M11122000 100001H260    000 0     01   2105260   101209467  008490100100062SNGCD00                         04344869729A1                           030                   000000                                 S         P    SF                                           0405070705    283797                2  10111110000 03151637SS 1008              213431235124321451235424121543123431423543234323152341              +H+++++F+GA+B++H+HD++GC++FBGA+DHA+B++J++CB+J+J++D+D++H              AGBHAJCJAHBHAACGDJBACJBFDHAFCHBFBADGCGAHDAAGDHBHAJAHDG                                                                                                                                                                                    1516084901001SS1037970        1516084901001SS1039510        1516084901001SS0035800                                                                                                                     .
15160904084901001DICKINSON ISD  DICKINSON H S  CASIANO        SOPHIA    A636747295F01052001 100001H160    000 0     00   295584    101209470  008490100100002HFCSB00                         09959865932A1                           030                   000000                                 S         P    SF                                           0509070705    333975                2  10111111101 03151590SS 1008              213431235124321451235424121543123431423543234323152341              ++DG+++G+F+FC+D+++CB+++++GBH++A++BA++F++BB+F++++B++++F              AGBHAJCJAHBHAACGDJBACJBFDHAFCHBFBADGCGAHDAAGDHBHAJAHDG                                                                                                                                                                                    1516084901001SS1039750        1516084901001SS1037000        1516084901001SS0036600                                                                                                                     .
15161004084901001DICKINSON ISD  DICKINSON H S  CASIMERE       TERRENCE  T636683487M10081999 000100B160    000 1     01   0100984   100738305  002190200200212DK45T00                         08651357923A1                           030                   100100                                 S         P    SR                                           0205040300    143267                1  0000000000                               213431235124321451235424121543123431423543234323152341              +HCGB+D+CFDGCBDFA*+BB+A+++BGA+DHDBCHDH+G*B+JCF+JCGD++J              AGBHAJCJAHBHAACGDJBACJBFDHAFCHBFBADGCGAHDAAGDHBHAJAHDG                                                                                                                                                                                    1516084901001SS0032670        1516084901001SS0033380        1516084901001SS0026070        1516084901001SS0027760                                                                                       .
15161004084901001DICKINSON ISD  DICKINSON H S  CASTILLO       JENNIFER   641645113F01131999 110000H160    000 1     01   291166    100709207  008490100100002DMQ3P00                         08251214211A1                           030                   100100                                 S         O    AR                                           0301030303    133221                1  0000000000                               213431235124321451235424121543123431423543234323152341              DFAJBHAG+GDF+BD+A+CBAHCJBFBHDFDH++A++FB+AB++BJCJ++CGAF              AGBHAJCJAHBHAACGDJBACJBFDHAFCHBFBADGCGAHDAAGDHBHAJAHDG                                                                                                                                                                                    1516084901001AS0032210        1516084901001AS0034730        1516084901001AS0032100        1516084901001AS0032820                                                                                       .
15160904084901001DICKINSON ISD  DICKINSON H S  CASTILLO       KEVIN     G638741997M01122001 110000H160    000 0     00   090513    101209492  008490100100002DMCVG00                         09545747552A1                           030                   000000                                 S         P    SF                                           0608090706    364088                2  10111111111 03151599SS 1008              213431235124321451235424121543123431423543234323152341              +FD++H+++G+JB+D++++B++C+++B++++++BA++J++C++FA+D+++B+++              AGBHAJCJAHBHAACGDJBACJBFDHAFCHBFBADGCGAHDAAGDHBHAJAHDG                                                                                                                                                                                    1516084901001SS1040880        1516084901001SS1042810        1516084901001SS1040970                                                                                                                     .
15161004084901001DICKINSON ISD  DICKINSON H S  CASTILLO       MARIA     M643644054F12231998 110000H060    C03 0     01   2100962   100709330  008490100100002VZKS800                         09583634646A1                           030                   000000                                 S         P    SF                                           0103020200    082941                1  0000000000                  604201400642 213431235124321451235424121543123431423543234323152341              +FAFDGDHDFD+BBA+CGABDHCH++B****HDBCFBHDFCBB+AGAJCH++AF              AGBHAJCJAHBHAACGDJBACJBFDHAFCHBFBADGCGAHDAAGDHBHAJAHDG                                                                                                                                                                                    1516084901001SS0029410        1515084901001SS1036500        1516084901001SS0030840        1516084901001SS0030300                                                                                       .
15160904084901001DICKINSON ISD  DICKINSON H S  CASTILLO SAAVEDEMMANUEL   855186757M09211999 110000H160    C02 0     01   2103055   100709487  0084901001000025K7C300                         02916952756A1                           030                   000001                                 S         O    LF                                           0404080303    223585                1  1011000000                 1304201400111 213431235124321451235424121543123431423543234323152341              ++++DGDF+FDG+B+HA+DB+GCHAFB+D++++++HDJCF++++AF++DGDJCJ              AGBHAJCJAHBHAACGDJBACJBFDHAFCHBFBADGCGAHDAAGDHBHAJAHDG                                                                                                                                                                                    1516084901001LS1035850        1516084901001LS0034590        1515084901001SS0029150        1516084901001SS0028750                                                                                       .
15160904084901001DICKINSON ISD  DICKINSON H S  CASTRO VALLEJO BRANDON   GS15704136M03261999 110000H160    000 1     01   093512    100709204  008490100100002DH3J900                         01997324962A1                           030                   100100                                 S         P    SR                                           0303030303    153311                1  0000000000                               213431235124321451235424121543123431423543234323152341              +FCGD+BH++DG+B+JAGCBBFC+BJB+DGCGABAF++D+AB++BJCFBGD++F              AGBHAJCJAHBHAACGDJBACJBFDHAFCHBFBADGCGAHDAAGDHBHAJAHDG                                                                                                                                                                                    1516084901001SS0033110        1516084901001SS0033810        1516084901001SS0035540        1516084901001SS0031190                                                                                       .
15160904084901001DICKINSON ISD  DICKINSON H S  CATETE         PERLA     K628768243F03272001 110000H160    000 0     01   296638    101209499  008490100100002SM5G700                         09189171454A1                           030                   000000                                 S         P    SF                                           1010091005    444453                2  11111111112 03151656SS 1008              213431235124321451235424121543123431423543234323152341              ++A++++++FD+B++++++++++++++G+J+++++++H+++B+HA+++++++++              AGBHAJCJAHBHAACGDJBACJBFDHAFCHBFBADGCGAHDAAGDHBHAJAHDG                                                                                                                                                                                    1516084901001SS1144530        1516084901001SS1038500        1516084901001SS1040640                                                                                                                     .
15160904084901001DICKINSON ISD  DICKINSON H S  CERVANTES      ENRIQUE    642726495M09212000 110000H160    F00 0     01   0100292   101209513  008490100100002STQWN00                         09694696976A1                           030                   000000                                 S         P    SF                                           0307080503    263727                2  10111100000 03151590SS 1008              213431235124321451235424121543123431423543234323152341              +H+++H++DFCFD+BHC+DB+H++A+BHAF+JC++++J++C++J+++FD+B+C*              AGBHAJCJAHBHAACGDJBACJBFDHAFCHBFBADGCGAHDAAGDHBHAJAHDG                                                                                                                                                                                    1516084901001SS1037270        1516084901001SS1037750        1516084901001SS0036330                                                                                                                     .
15160904084901001DICKINSON ISD  DICKINSON H S  CERVANTES      MARK       643764913M07162001 100001H160    000 0     00   289672    101209518  008490100100002DMY8300                         07841367244A1                           030                   000000                                 S         P    SF                                           0808090703    354050                2  10111111111 03151628SS 1008              213431235124321451235424121543123431423543234323152341              +*+G++++B+DF+++J++ABB++++++++JC+C++++J++C++J+F++BHB+++              AGBHAJCJAHBHAACGDJBACJBFDHAFCHBFBADGCGAHDAAGDHBHAJAHDG                                                                                                                                                                                    1516084901001SS1040500        1516084901001SS1042810        1516084901001SS1043480                                                                                                                     .
15161004084901001DICKINSON ISD  DICKINSON H S  CESSNA         CHRISTIAN N295046065M03132000 000001W060    000 0     00   2107275   101209325  008490100100003T8DBW00                         19262266928A1                           030                   000000                                 S         P    SF                                           0907060603    313903                2  1011111100                               213431235124321451235424121543123431423543234323152341              ++++B++H+GCGBB+++++BBGC++++JA++++B+++FC++B+J+F+++GB+CF              AGBHAJCJAHBHAACGDJBACJBFDHAFCHBFBADGCGAHDAAGDHBHAJAHDG                                                                                                                                                                                    1516084901001SS1039030        1516084901001SS1146150                                      1516084901001SS1039250                                                                                       .
15160904084901001DICKINSON ISD  DICKINSON H S  CHAMPION       TYREE     D628662068M02241999 000100B160    000 0     01   0106116   100709201  008490101100252DJ4P600                         01336425644A1                           030                   000000                                 S         P    SR                                           0307080804    303850                1  1011111100                               213431235124321451235424121543123431423543234323152341              +HD++H+F++++BB+JCGDB++D+B+B+++A++++++J++B++HA++FDGD++F              AGBHAJCJAHBHAACGDJBACJBFDHAFCHBFBADGCGAHDAAGDHBHAJAHDG                                                                                                                                                                                    1516084901001SS1038500        1516084901001SA0013250        1315084901011SS1039470                                                                                                                     .
