13171004020905001BRAZOSPORT ISD BRAZOSPORT H S ACUNA          MELANY    A636760080F05292001 110000H100    000 0     01   030760    110897786  002090500100002J7TX5000                        02337312623A1                           050                   000 0 000                              S         P    SR                                           0309040503    243651                2 01011                                                                                                                                                                                                                                                 026                                                                                                                                                                                                                                                                                                                                                                           1317020905001SS10002436510309040503                026                                              1317020905001SA00000013330000000000                000                                              1316020905001SS1 00  3792                                                                           1517020905001SS10004438840509070808074           1 046                                              1517020905001SS100037380413070314                  022                                                                                                                                                                                                                                                                                                                                                                                                                                                                                                                                                                 .
13171104020905001BRAZOSPORT ISD BRAZOSPORT H S AIRRINGTON     SKYLER    B641683408F11191999 000001W200    000 0     01   032081    110889443  002090500100002J89BN000                        01778136753A1                           050                   000 0 000                              S         P    SR                                           0306030302    173389                2 00000                                                                                                                                                                                                                                                 012                                                                                                                                                                                                                                                                                                                                                                           1317020905001SS00001733890306030302                012                                              1517020905001SS10002537110707020405                020                                              1317020905001SS00003536400607090403062             032                                              1317020905001SS00003435230610060601053             024                                              1517020905001SS100036377217060409                  020                                                                                                                                                                                                                                                                                                                                                                                                                                                                                                                                                                 .
13171004020905001BRAZOSPORT ISD BRAZOSPORT H S ALVAREZ        JAZMINE    630804946F01032002 110000H000    000 0     01   135655    110894158  002090500100002J5YSD000                        06617943414A1                           050                   000 0 000                              S         P    SR                                           0106060303    193467                2 00000                                                                                                                                                                                                                                                 016                                                                                                                                                                                                                                                                                                                                                                           1317020905001SS00001934670106060303                016                                                                                                                                                  1317020905001SS10004339020310110607063             051                                                                                                                                                                                                                                                                                                                                                                                                                                                                                                                                                                                                                                                                                                                                                                         .
13171004020905001BRAZOSPORT ISD BRAZOSPORT H S ANGEL          GABRIELA  F644829130F09012002 000001W000    000 0     01   137688    111140874  002090500100002ZMP6T000                        01211947866A1                           080                   000 0 000                              S         P    SR                                           0407060701    253686                2 01011                                                                                                                                                                                                                                                 029                                                                                                                                                                                                                                                                                                                                                                           1317020905001SS10002536860407060701                029                                                                                                                                                  1517020905001SS10004439320708100805064             052                                                                                                                                                                                                                                                                                                                                                                                                                                                                                                                                                                                                                                                                                                                                                                         .
13171004020905001BRAZOSPORT ISD BRAZOSPORT H S APARICIO       VICTOR    R638768557M06192001 100001H100    000 1     01   1    39364111140810  002090500100002ZMP3Y000                        05496881331A1                           050                   000 0 111                              S         O    SR                                           0102040202    113116                2 00000                                                                                                                                                                                                                                                 002                                                                                                                                                                                                                                                                                                                                                                           1317020905001SS00001131160102040202                002                                                                                                                                                  1317020905001SS00001630870206030001040             004                                                                                                                                                                                                                                                                                                                                                                                                                                                                                                                                                                                                                                                                                                                                                                         .
13171004020905001BRAZOSPORT ISD BRAZOSPORT H S ARANA          MARCUS    A637760802M05242001 110000H100    000 0     01   027863    110896170  002090500100002J75TG000                        07558931924A1                           050                   000 0 000                              S         P    SR                                           0102030101    082938                2 00000                                                                                                                                                                                                                                                 000                                                                                                                                                                                                                                                                                                                                                                           1317020905001SS00000829380102030101                000                                              1317020905001SS00001532950402040203                005                                              1317020905001SS00002332970403060404022             012                                              1317020905001SS00002732930505060403042             013                                              1317020905001SS000022330112030304                  003                                                                                                                                                                                                                                                                                                                                                                                                                                                                                                                                                                 .
13171104020905001BRAZOSPORT ISD BRAZOSPORT H S ARIAS          YARITZA   ES11669040F10292000 110000H100    C03 0     01   1    55972110848421  002090500100003T4PRZ000                        04622642948A1                           050                   000 0 111                              S         O    SR                                           0305040304    193467                2 00000                                                                                                                                                                                                                                                 016                                                                                                                                                                                                                                                                                                                                                                           1317020905001SS00001934670305040304                016                                              1317020905001SS00001231520403020102                002                                              1317020905001SS00001630870304020401022             004                                              1317020905001SS00002031100104040404032             006                                              1317020905001SS000015302305020404                  000                                                                                                                                                                                                                                                                                                                                                                                                                                                                                                                                                                 .
13171204020905001BRAZOSPORT ISD BRAZOSPORT H S ARNOLD         KAYLEA    R645661840F07021999 100001H000    000 1     01   131771    110892540  002090500100002KBJNW000                        09223682932A1                           050                   100 0 000                              S         P    SR                                           0607050701    263721                1 01011                                                                                                                                                                                                                                                 031                                                                                                                                                                                                                                                                                                                                                                           1317020905001SS10002637210607050701                031                                              1515020905001AS1 00  3551                                                                           1515020905001AS1 00  3954                                                                           1516020905001AS1 00  4000                                                                           1516020905001AS1 00  3884                                                                                                                                                                                                                                                                                                                                                                                                                                                                                                                                                                                              .
13170904020905001BRAZOSPORT ISD BRAZOSPORT H S AUSTIN         ROGELIO   E629767854M03282001 000100B190    000 0     01   036524    110889781  002090500100002ZMQR8000                        01679253778A1                           050                   000 0 000                              S         P    SR                                           0202030301    113116                2 00000                                                                                                                                                                                                                                                 002                                                                                                                                                                                                                                                                                                                                                                           1317020905001SS00001131160202030301                002                                                                                                                                                  1317020905001SS00002633810205040801064             016                                                                                                                                                                                                                                                                                                                                                                                                                                                                                                                                                                                                                                                                                                                                                                         .
13171104020905001BRAZOSPORT ISD BRAZOSPORT H S BARBOSA        CRISTIAN  M632783745M08282001 110000H200    000 0     01   1    36009111140936  002090500100002J6MGH000                        07121764415A1                           050                   000 0 100                              S         O    SR                                           0203030205    153305                2 00000                                                                                                                                                                                                                                                 008                                                                                                                                                                                                                                                                                                                                                                           1317020905001SS00001533050203030205                008                                              1517020905001SS11003842051007060708                061                                              1517020905001SS11004640000708100808054             057                                              1317020905001SS10004338170810060804074             043                                              1517020905001SS110049421623090512                  055                                                                                                                                                                                                                                                                                                                                                                                                                                                                                                                                                                 .
13171104020905001BRAZOSPORT ISD BRAZOSPORT H S BATTLEY        KEVIN     L630704883M12171999 100100H200    000 0     01   130861    110899559  002090500100002J5XVM000                        03237564915A1                           080                   000 0 000                              S         P    SR                                           0304070403    213550                1 01011                                                                                                                                                                                                                                                 020                                                                                                                                                                                                                                                                                                                                                                           1317020905001SS10002135500304070403                020                                              1515020905002SS1 00  4115                                                                           1615020905002SS1 00  3925                                                                           1316020905001SS1 00  4070                                                                           1516020905006SS1 00  3500                                                                                                                                                                                                                                                                                                                                                                                                                                                                                                                                                                                              .
13171104020905001BRAZOSPORT ISD BRAZOSPORT H S BEJARA NO      ITZAMARY   637642525F12061998 110000H000    000 0     01   1    28964110851033  002090500600002J74HY000                        02211261752A1                           010                   000 0 000                              A         O    SR                                           0000000000    001402                1 00000                                                                                                                                                                                                                                                 000                                                                                                                                                                                                                                                                                                                                                                           1317020905001SA00000014020000000000                000                                              1517020905001SS10002135500206070402                011                                              1317020905001SA00000011450000000000000             000                                              1317020905001SA00000009750000000000000             000                                              1517020905001SS100040390017060809                  028                                                                                                                                                                                                                                                                                                                                                                                                                                                                                                                                                                 .
13171104020905001BRAZOSPORT ISD BRAZOSPORT H S BELL           KIARA     AS11672301F07311999 100100H000    000 0     01   031898    110894239  002090500100002B4GVK000                        08646257991A1                             0                   000 0 000                              A         P    SR                                           0000000000    001402                1 00000                                                                                                                                                                                                                                                 000                                                                                                                                                                                                                                                                                                                                                                           1317020905001SA00000014020000000000                000                                              1515020905001SS1 00  3746                                                                           1515020905001SS1 00  4000                                                                           1516020905001SS1 00  3831                                                                           1316020905001SS1 00  4284                                                                                                                                                                                                                                                                                                                                                                                                                                                                                                                                                                                              .
13171004020905001BRAZOSPORT ISD BRAZOSPORT H S BONILLA ORELLANKIMBERLYN AS11258761F12162000 100001H000    C03 0     00   0    59484110848655  002090500100003WSY2K000                        06376931219A1                           050                   000 0 111                              S         O    SR                                           0606060603    273757                2 01011                                                                                                                                                                                                                                                 033                                                                                                                                                                                                                                                                                                                                                                           1317020905001SS10002737570606060603                033                                                                                                                                                                                                                                                                                                                                                                                                                                                                                                                                                                                                                                                                                                                                                                                                                                                                                                                                                                                 .
13171104020905001BRAZOSPORT ISD BRAZOSPORT H S BRADEN         JOSHUA    J302049994M08182000 000001W100    000 1     00   158979    110899503  002090500100002BCYG9000                        04498989791A1                           050                   000 0 110                              S         O    SR                                           0203050200    123167                2 00000                                                                                                                                                                                                                                                 003                                                                                                                                                                                                                                                                                                                                                                           1317020905001SS00001231670203050200                003                                              1317020905001SS10002536860503060704                023                                              1317020905001SS00002934650308070404032             021                                              1317020905001SS00003234570208070405062             021                                                                                                                                                                                                                                                                                                                                                                                                                                                                                                                                                                                                                                                                     .
13171004020905001BRAZOSPORT ISD BRAZOSPORT H S BRADEN         ZACKERY   T297065477M04192002 000001W100    000 1     00   158980    110895123  002090500100002Y59QT000                        02879122414A1                           050                   100 0 000                              S         P    SR                                           0403030202    143261                2 00000                                                                                                                                                                                                                                                 006                                                                                                                                                                                                                                                                                                                                                                           1317020905001SS00001432610403030202                006                                                                                                                                                  1317020905001SS00002934650204070406062             021                                                                                                                                                                                                                                                                                                                                                                                                                                                                                                                                                                                                                                                                                                                                                                         .
13170904020905001BRAZOSPORT ISD BRAZOSPORT H S BUILTRON       ISAAC      470390387M12032000 100001H100    000 0     01   134480    110850871  002090500100002J39G6000                        01148937447A1                           050                   000 0 000                              S         P    SR                                           0303060701    203500                2 00010                                                                                                                                                                                                                                                 018                                                                                                                                                                                                                                                                                                                                                                           1317020905001SS00002035000303060701                018                                                                                                                                                  1317020905001SS00003235500409040406052             026                                                                                                                                                                                                                                                                                                                                                                                                                                                                                                                                                                                                                                                                                                                                                                         .
13171004020905001BRAZOSPORT ISD BRAZOSPORT H S CALVILLO       JESUS     A628805811M12172001 110000H000    000 0     00   136475    110895151  002090500100002ZMP5G000                        05626928456A1                           050                   000 0 000                              S         P    SR                                           0708080802    333970                2 01011                                                                                                                                                                                                                                                 050                                                                                                                                                                                                                                                                                                                                                                           1317020905001SS10003339700708080802                050                                                                                                                                                  1517020905001SS10004539690608091006065             055                                                                                                                                                                                                                                                                                                                                                                                                                                                                                                                                                                                                                                                                                                                                                                         .
13171004020905001BRAZOSPORT ISD BRAZOSPORT H S CARDENAS       RYLAND    G645749720M03122001 100001H100    000 1     01   131775    110850483  002090500100062ZMP4G000                        02428735292A1                           050                   100 0 000                              S         P    SR                                           0202030000    072867                2 00000                                                                                                                                                                                                                                                 000                                                                                                                                                                                                                                                                                                                                                                           1317020905001SS00000728670202030000                000                                                                                                                                                  1317020905001SS00000927670104010001020             000                                                                                                                                                                                                                                                                                                                                                                                                                                                                                                                                                                                                                                                                                                                                                                         .
13171104020905001BRAZOSPORT ISD BRAZOSPORT H S CASPER         CHEYANNE  L645742954F02212001 000001W100    000 0     01   134484    110887139  002090500100002KBMGD000                        09748357759A1                           050                   000 0 000                              S         P    SR                                           0205070404    223579                2 01011                                                                                                                                                                                                                                                 022                                                                                                                                                                                                                                                                                                                                                                           1317020905001SS10002235790205070404                022                                              1517020905001SS10002537110304050508                020                                              1317020905001SS00003436100307090604053             030                                              1317020905001SS00002833260604040602063             014                                              1317020905001SS000022330110020307                  003                                                                                                                                                                                                                                                                                                                                                                                                                                                                                                                                                                 .
13171104020905001BRAZOSPORT ISD BRAZOSPORT H S CISNEROS       POLICARPIO 628769608M04042001 110000H000    C03 0     01   1    33179110891676  002090500100002J5CQK000                        06585937341A1                           050                   000 0 001                              S         O    SR                                           0005040401    143261                2 00000                                                                                                                                                                                                                                                 006                                                                                                                                                                                                                                                                                                                                                                           1317020905001SS00001432610005040401                006                                              1317020905001SA00000013330000000000                000                                              1317020905001SS00001329700203050002010             002                                              1317020905001SS00001629770104050005010             003                                              1517020905001SS110046410421080512                  046                                                                                                                                                                                                                                                                                                                                                                                                                                                                                                                                                                 .
13171004020905001BRAZOSPORT ISD BRAZOSPORT H S COX            CHEYENNE  N640766717F06252001 000001W100    000 1     01   1    31737110899098  002090500100002ZMP3V000                        05472838991A1                           050                   000 0 101                              S         O    SR                                           0501020300    113116                2 00000                                                                                                                                                                                                                                                 002                                                                                                                                                                                                                                                                                                                                                                           1317020905001SS00001131160501020300                002                                                                                                                                                  1317020905001SS00001931880006040404012             008                                                                                                                                                                                                                                                                                                                                                                                                                                                                                                                                                                                                                                                                                                                                                                         .
13171004020905001BRAZOSPORT ISD BRAZOSPORT H S CRUZ FLORES    KEYSHA    L599704350F09062002 100001H100    000 0     00   159045    110892129  002090500100003WSQGP000                        03379987514A1                           050                   000 0 000                              S         P    SR                                           0505050404    233615                2 01011                                                                                                                                                                                                                                                 024                                                                                                                                                                                                                                                                                                                                                                           1317020905001SS10002336150505050404                024                                                                                                                                                  1317020905001SS10004037990508060608073             044                                                                                                                                                                                                                                                                                                                                                                                                                                                                                                                                                                                                                                                                                                                                                                         .
13171004020905001BRAZOSPORT ISD BRAZOSPORT H S DAVILA         JULIAN     640740191M01302001 110000H100    000 1     01   0    32269110849362  002090500100002J8YP7000                        03997797641A1                           050                   000 0 101                              S         O    SR                                           0201050202    123167                2 00000                                                                                                                                                                                                                                                 003                                                                                                                                                                                                                                                                                                                                                                           1317020905001SS00001231670201050202                003                                              1317020905001SA00000013330000000000                000                                              1317020905001SS00001530500204030003030             003                                                                                                                                                                                                                                                                                                                                                                                                                                                                                                                                                                                                                                                                                                                                                                         .
13171004020905001BRAZOSPORT ISD BRAZOSPORT H S DE LA CRUZ COJ OLGA      MS11666994F04141999 110000H100    C03 0     01   0    54942110895836  002090500100002654PJ000                        05369747717A1                           050                   000 0 111                              S         O    SR                                           0502020402    153305                1 00000                                                                                                                                                                                                                                                 008                                                                                                                                                                                                                                                                                                                                                                           1317020905001SS00001533050502020402                008                                              1317020905001SA00000013330000000000                000                                              1317020905001SA00001831550306040003020             006                                              1317020905001SA00000009750000000000000             000                                              1317020905001SS000018315006030405                  001                                                                                                                                                                                                                                                                                                                                                                                                                                                                                                                                                                 .
13171104020905001BRAZOSPORT ISD BRAZOSPORT H S DIAZ ORTIZ     CARIANA   LS11666505F03072000 100001H100    C03 0     01   0    48854110889808  002090500100002Z463J000                        06967361171A1                           050                   000 0 110                              S         O    SR                                           0302040202    133215                1 00000                                                                                                                                                                                                                                                 005                                                                                                                                                                                                                                                                                                                                                                           1317020905001SS00001332150302040202                005                                              1517020905001SS10001935000103040605                010                                              1317020905001SS00002032180105050401042             009                                              1317020905001SS00001629770205000401042             003                                              1317020905001SS000018315008030304                  001                                                                                                                                                                                                                                                                                                                                                                                                                                                                                                                                                                 .
13171004020905001BRAZOSPORT ISD BRAZOSPORT H S DIAZ ORTIZ     LUIS      M596684759M07122001 100001H100    F02 1     01   0    57152110851102  002090500100003TNZ5R000                        03942273241A1                           050                   000 0 111                              S         O    SR                                           0205050302    173389                2 00000                                                                                                                                                                                                                                                 012                                                                                                                                                                                                                                                                                                                                                                           1317020905001SS00001733890205050302                012                                                                                                                                                  1317020905001SS00001128780102040002020             001                                                                                                                                                                                                                                                                                                                                                                                                                                                                                                                                                                                                                                                                                                                                                                         .
13171004020905001BRAZOSPORT ISD BRAZOSPORT H S DURSO          KAYLEE    A628766597F03312001 000001W000    000 1     01   035584    111140927  002090500100002ZMPXS000                        03468173628A1                           050                   100 0 000                              S         P    SR                                           0107040302    173389                2 00000                                                                                                                                                                                                                                                 012                                                                                                                                                                                                                                                                                                                                                                           1317020905001SS00001733890107040302                012                                              1517020905001SS10002336370307040405                016                                              1317020905001SS00003436100309060805034             030                                                                                                                                                                                                                                                                                                                                                                                                                                                                                                                                                                                                                                                                                                                                                                         .
13171104020905001BRAZOSPORT ISD BRAZOSPORT H S EDWARDS        EL'HAJJ'  I641742019M02102001 000100B100    000 0     01   133599    110855197  002090500100002J893F000                        07287667916A1                           050                   000 0 000                              S         P    SR                                           0304040102    143261                2 00000                                                                                                                                                                                                                                                 006                                                                                                                                                                                                                                                                                                                                                                           1317020905001SS00001432610304040102                006                                              1317020905001SA00000013330000000000                000                                              1317020905001SS00002433250305030802034             014                                              1317020905001SS00002833260502050804044             014                                              1517020905001SS100034370816040509                  016                                                                                                                                                                                                                                                                                                                                                                                                                                                                                                                                                                 .
13171104020905001BRAZOSPORT ISD BRAZOSPORT H S ELISERIO       GISELLE    637701548F03032000 110000H100    C03 0     01   1    33184110850179  002090500100002J75CF000                        05251854951A1                           050                   000 0 011                              S         O    SR                                           0304030302    153305                2 00000                                                                                                                                                                                                                                                 008                                                                                                                                                                                                                                                                                                                                                                           1317020905001SS00001533050304030302                008                                              1617020905001SS10002436670406080402                018                                              1317020905001SS10004539580509101006055             054                                              1317020905001SS00003134360406070605033             020                                              1317020905001SS100033366411090607                  015                                                                                                                                                                                                                                                                                                                                                                                                                                                                                                                                                                 .
13171004020905001BRAZOSPORT ISD BRAZOSPORT H S ESCANUELA      LUCIANA   M642789612F11052001 100001H100    C03 0     01   155781    110851893  002090500100002MK5TB000                        02712518195A1                           050                   000 0 000                              S         P    SR                                           0406040604    243651                2 01011                                                                                                                                                                                                                                                 026                                                                                                                                                                                                                                                                                                                                                                           1317020905001SS10002436510406040604                026                                                                                                                                                  1617020905001SS10004037750306081006075             040                                                                                                                                                                                                                                                                                                                                                                                                                                                                                                                                                                                                                                                                                                                                                                         .
13170904020905001BRAZOSPORT ISD BRAZOSPORT H S ESPINOZA       ASHLEY     628806144F12042001 110000H100    000 0     01   137114    110898434  002090500100002J5CT4000                        01543134343A1                           050                   000 0 000                              S         P    SR                                           0306020102    143261                2 00000                                                                                                                                                                                                                                                 006                                                                                                                                                                                                                                                                                                                                                                           1317020905001SS00001432610306020102                006                                                                                                                                                  1317020905001SS00002132400207020402042             010                                                                                                                                                                                                                                                                                                                                                                                                                                                                                                                                                                                                                                                                                                                                                                         .
13171104020905001BRAZOSPORT ISD BRAZOSPORT H S ESPINOZA OLVERAHECTOR    AS11675555M09042000 110000H100    C03 1     01   140361    110852627  002090500100002B4JCH000                        01271284731A1                           050                   100 0 000                              S         P    SR                                           0506030301    183428                2 00000                                                                                                                                                                                                                                                 014                                                                                                                                                                                                                                                                                                                                                                           1317020905001SS00001834280506030301                014                                              1317020905001SS00001130990300030401                001                                              1617020905001SS00002031590105040403032             006                                              1317020905001SS00001930300104050404012             004                                              1317020905001SS000018315010040103                  001                                                                                                                                                                                                                                                                                                                                                                                                                                                                                                                                                                 .
13171004020905001BRAZOSPORT ISD BRAZOSPORT H S EWALD          COLE      T635765925M05232001 000001W000    000 0     01   135587    110893901  002090500100002J7KF9000                        05448247997A1                           050                   000 0 000                              S         P    SR                                           0307070402    233615                2 01011                                                                                                                                                                                                                                                 024                                                                                                                                                                                                                                                                                                                                                                           1317020905001SS10002336150307070402                024                                                                                                                                                  1317020905001SS00002734090107050604043             018                                              1317020905001SS00003234570307050803064             021                                              1517020905001SS100040390016050613                  028                                                                                                                                                                                                                                                                                                                                                                                                                                                                                                                                                                 .
13171004020905001BRAZOSPORT ISD BRAZOSPORT H S FERGUSON       RICKY     LS11675170M11112000 000001W100    000 0     01   136969    110869658  002090500100002ZMPNH000                        05848726892A1                             0                   000 0 000                              A         P    SR                                           0000000000    001402                2 00000                                                                                                                                                                                                                                                 000                                                                                                                                                                                                                                                                                                                                                                           1317020905001SA00000014020000000000                000                                              1517020905001SS10002436740506060304                018                                              1617020905001SS10004037750806100805034             040                                                                                                                                                                                                                                                                                                                                                                                                                                                                                                                                                                                                                                                                                                                                                                         .
13171004020905001BRAZOSPORT ISD BRAZOSPORT H S FIELDS         ZHANE     A633782741F06292001 000100B100    000 0     01   136884    110899420  002090500100002J6WV8000                        05339893723A1                           050                   000 0 000                              S         P    SR                                           0303060303    183428                2 00000                                                                                                                                                                                                                                                 014                                                                                                                                                                                                                                                                                                                                                                           1317020905001SS00001834280303060303                014                                              1517020905001SS10002336370506050304                016                                              1317020905001SS11004640000611100807044             059                                              1317020905001SS00003234570410050603043             021                                                                                                                                                                                                                                                                                                                                                                                                                                                                                                                                                                                                                                                                     .
13171004020905001BRAZOSPORT ISD BRAZOSPORT H S FULLER         SIMONE    K644786267F11282001 000100B100    000 0     01   035789    110897317  002090500100002ZMPNJ000                        01574891588A1                           050                   000 0 000                              S         P    SR                                           0205040302    163348                2 00000                                                                                                                                                                                                                                                 010                                                                                                                                                                                                                                                                                                                                                                           1317020905001SS00001633480205040302                010                                                                                                                                                  1317020905001SS00003034930504090403052             023                                                                                                                                                                                                                                                                                                                                                                                                                                                                                                                                                                                                                                                                                                                                                                         .
13171204020905001BRAZOSPORT ISD BRAZOSPORT H S GAMBOA         MELANIE   S644682893F11221999 100001H100    000 0     00   227796    110899583  002090500100002J97M5000                        09773543234A1                           050                   000 0 000                              S         P    SR                                           0304070202    183428                1 00000                                                                                                                                                                                                                                                 014                                                                                                                                                                                                                                                                                                                                                                           1317020905001SS00001834280304070202                014                                              1515020905001SS1 00  3601                                                                           1515020905001SS1 00  4055                                                                           1516020905001SS1 00  3831                                                                           1516020905001SS1 00  3981                                                                                                                                                                                                                                                                                                                                                                                                                                                                                                                                                                                              .
13171004020905001BRAZOSPORT ISD BRAZOSPORT H S GARCIA         MOISES    A630803722M12202001 110000H200    000 1     01   135598    110853431  002090500100002ZMP34000                        04341968939A1                           050                   100 0 000                              S         P    SR                                           0306050202    183428                2 00000                                                                                                                                                                                                                                                 014                                                                                                                                                                                                                                                                                                                                                                           1317020905001SS00001834280306050202                014                                                                                                                                                  1317020905001SS00002132400106050403022             010                                                                                                                                                                                                                                                                                                                                                                                                                                                                                                                                                                                                                                                                                                                                                                         .
13171004020905001BRAZOSPORT ISD BRAZOSPORT H S GARCIA-FRANCO  KELVIN    DS11669198M07042000 100001H100    C03 0     01   1    57231110849576  002090500100003T7DRH000                        05689458554A1                           050                   000 0 111                              S         O    SR                                           0403020102    123167                2 00000                                                                                                                                                                                                                                                 003                                                                                                                                                                                                                                                                                                                                                                           1317020905001SS00001231670403020102                003                                                                                                                                                  1317020905001SS00001731220405010001060             005                                                                                                                                                                                                                                                                                                                                                                                                                                                                                                                                                                                                                                                                                                                                                                         .
13171004020905001BRAZOSPORT ISD BRAZOSPORT H S GARCIA-ROMAN   IVAN       629232400M03152002 110000H000    C03 0     01   1    46828110887335  002090500100002ZMPN6000                        05382846936A1                           050                   000 0 011                              S         O    SR                                           0303040403    173389                2 00000                                                                                                                                                                                                                                                 012                                                                                                                                                                                                                                                                                                                                                                           1317020905001SS00001733890303040403                012                                                                                                                                                  1317020905001SS00002633910307030405042             017                                                                                                                                                                                                                                                                                                                                                                                                                                                                                                                                                                                                                                                                                                                                                                         .
13171004020905001BRAZOSPORT ISD BRAZOSPORT H S GARZA          MARTIN     639783746M10192001 110000H000    000 0     00   135813    110852825  002090500100002J8RDK000                        09854889378A1                           050                   000 0 000                              S         P    SR                                           0405050102    173389                2 00000                                                                                                                                                                                                                                                 012                                                                                                                                                                                                                                                                                                                                                                           1317020905001SS00001733890405050102                012                                                                                                                                                  1517020905001SS10004338950708100805054             049                                                                                                                                                                                                                                                                                                                                                                                                                                                                                                                                                                                                                                                                                                                                                                         .
13171104020905001BRAZOSPORT ISD BRAZOSPORT H S GIBSON         BAILEY    S657077988M10071999 000001W000    000 0     01   1    55772110894742  002090500100003T7XQF000                        03352835454A1                           050                   000 0 000                              S         O    SR                                           0404060300    173389                2 00000                                                                                                                                                                                                                                                 012                                                                                                                                                                                                                                                                                                                                                                           1317020905001SS00001733890404060300                012                                              1317020905001SS00001834220204030504                010                                              1316020905001SS1 00  3775                                                                           1317020905001SS00003034070506080406012             018                                              1517020905001SS100033367716040508                  014                                                                                                                                                                                                                                                                                                                                                                                                                                                                                                                                                                 .
13171004020905001BRAZOSPORT ISD BRAZOSPORT H S HELMS          JALEN     T636707125M12291999 000100B100    000 0     01   133753    110900029  002090500100002J7S9N000                        08298263324A1                           050                   000 0 000                              S         P    SR                                           0404050302    183428                2 00000                                                                                                                                                                                                                                                 014                                                                                                                                                                                                                                                                                                                                                                           1317020905001SS00001834280404050302                014                                              1317020905001SA00000013330000000000                000                                              1317020905001SS00002433250308040402032             014                                              1317020905001SS00002130960102040403072             006                                              1317020905001SS000014297608010203                  000                                                                                                                                                                                                                                                                                                                                                                                                                                                                                                                                                                 .
13171004020905001BRAZOSPORT ISD BRAZOSPORT H S HELTON         CALEB     W639822332M07162002 000001W190    000 0     01   155000    110886686  002090500100002Y6QZD000                        02734317699A1                           050                   000 0 000                              S         P    SR                                           0609060802    313898                2 01011                                                                                                                                                                                                                                                 044                                                                                                                                                                                                                                                                                                                                                                           1317020905001SS10003138980609060802                044                                                                                                                                                  1317020905001SS00003135210006050806064             024                                                                                                                                                                                                                                                                                                                                                                                                                                                                                                                                                                                                                                                                                                                                                                         .
13171104020905001BRAZOSPORT ISD BRAZOSPORT H S HERNANDEZ      ASHLEY    M388218781F10052000 100001H000    000 0     01   134450    110897156  002090500100002J3GNC000                        05365993489A1                           050                   000 0 000                              S         P    SR                                           0303020303    143261                2 00000                                                                                                                                                                                                                                                 006                                                                                                                                                                                                                                                                                                                                                                           1317020905001SS00001432610303020303                006                                              1517020905001SS10002336370904020305                016                                              1317020905001SS00003737020509100405042             036                                              1317020905001SS00003435230307100404062             024                                              1317020905001SS000024337109080403                  005                                                                                                                                                                                                                                                                                                                                                                                                                                                                                                                                                                 .
13171004020905001BRAZOSPORT ISD BRAZOSPORT H S HINTON         CHLOE     S628788104F08102001 000001W100    000 0     01   036611    110886760  002090500100002ZMQPV000                        09237678983A1                           050                   000 0 000                              S         P    SR                                           0706070604    303862                2 01011                                                                                                                                                                                                                                                 041                                                                                                                                                                                                                                                                                                                                                                           1317020905001SS10003038620706070604                041                                                                                                                                                  1517020905001SS10004138250606081007045             044                                                                                                                                                                                                                                                                                                                                                                                                                                                                                                                                                                                                                                                                                                                                                                         .
13171004020905001BRAZOSPORT ISD BRAZOSPORT H S HOLMES         ELIJAH    D642827568M08162002 001100T000    000 0     01   035914    110891479  002090500100002ZMPT9000                        05986419456A1                             0                   000 0 000                              A         P    SR                                           0000000000    001402                2 00000                                                                                                                                                                                                                                                 000                                                                                                                                                                                                                                                                                                                                                                           1317020905001SA00000014020000000000                000                                                                                                                                                  1317020905001SA00000011350000000000000             000                                                                                                                                                                                                                                                                                                                                                                                                                                                                                                                                                                                                                                                                                                                                                                         .
13171204020905001BRAZOSPORT ISD BRAZOSPORT H S INGLES         MICHAEL   A642661918M06251999 100001H200    000 0     01   229303    110849334  002090500100002J9K5W000                        04548759719A1                           050                   000 0 000                              S         P    SR                                           0407040304    223579                1 01011                                                                                                                                                                                                                                                 022                                                                                                                                                                                                                                                                                                                                                                           1317020905001SS10002235790407040304                022                                              1517020905001SS10002436740304050606                018                                              1316020905001SS1 00  3792                                                                           1517020905001SS11004740000611090806074             056                                              1516020905001SS1 00  3534                                                                                                                                                                                                                                                                                                                                                                                                                                                                                                                                                                                              .
