13161204101911002GOOSE CREEK CISLEE H S        AGUILAR CASTRO YORDI     RS16672114M04041999 100001H000    C02 0     01   13023671  104584736  0101911002000025Q8JF00                         04947522941A1                           080                   000001                                 S         O    SR                                           0002020201    072857                1  0000     0                  604201400522                                                                                                                                                                                                                                                                                                                                                                                   1316101911002SS0028570        1316101911002SS0033890        1316101911002SS0032790        1316101911002SS0030940        1516101911002SS1036250                                                         .
13161004101911002GOOSE CREEK CISLEE H S        ALANIS         NICOLAS    645746971M03182001 100001H000    000 0     01   181743    104581198  010191100200002T954M00                         09819247284A1                           080                   000000                                 S         O    SR                                           0605060402    233613                2  1011     0                                                                                                                                                                                                                                                                                                                                                                                                                 1316101911002SS1036130        1316101911002SS0033030        1316101911002SS0035670                                                                                                                     .
13161004101911002GOOSE CREEK CISLEE H S        ALDAPE LERMA   BRAYAN     632784644M08302001 100001H000    000 0     01   2    78321104688381  010191100200002T673F00                         03645146776A1                           080                   000000                                 S         O    SR                                           0707050403    263721                2  1011     0                                                                                                                                                                                                                                                                                                                                                                                                                 1316101911002SS1037210        1516101911002SS1040670        1516101911002SS1037960                                                                                                                     .
13161104101911002GOOSE CREEK CISLEE H S        ALEXANDER      ASIA      R635726549F08082000 000100B000    000 0     01   13029464  104652814  010191100200062N8D6R00                         01618241141A1                           080                   000000                                 S         O    SR                                           0707090806    374127                1  1011     1                                                                                                                                                                                                                                                                                                                                                                                                                 1316101911002SS1041270        1515057905025SS1037100        1515057905025SS1038420        1316101911002SS1038800                                                                                       .
13161104101911002GOOSE CREEK CISLEE H S        BARCENAS       ANGEL      636666414M05191999 100001H100    C02 0     01   170088    104824580  010191100200002T74DX00                         04537641657A1                           080                   000001                                 S         O    SR                                           0304040303    173384                1  0000     0                  604201400642                                                                                                                                                                                                                                                                                                                                                                                   1316101911002SS0033840        1615101911002SS1035000        1316101911002SS0036500        1316101911002SS0035190                                                                                       .
13161004101911002GOOSE CREEK CISLEE H S        BENITEZ HERNANDFREDIS    JS17067467M07102000 100001H100    C02 0     01   13025596  104917027  010191100200003T5N6700                         03926134186A1                           080                   000001                                 S         O    LF                                           0504080603    263721                2  1011     0                 2104201601121                                                                                                                                                                                                                                                                                                                                                                                   1316101911002LS1037210        1316101911002LS0033030        1316101911002SS0032270                                                                                                                     .
13161004101911002GOOSE CREEK CISLEE H S        BIESCHKE       NICHOLAS  I628740058M10302000 000001W200    000 1     01   0    84304104824501  010191100200002T59WM00                         02851336231A1                           080                   100100                                 S         O    AR                                           0403040502    183425                2  0000     0                                                                                                                                                                                                                                                                                                                                                                                                                 1316101911002AS0034250        1516101911002AS1038820        1316101911002AS1038520                                                                                                                     .
13161004101911002GOOSE CREEK CISLEE H S        BONILLA MADRID LUIS      AS17066597M03072001 100001H000    C02 0     01   03020280  104823442  01019110020000265N7S00                         01198535253A1                           080                   000001                                 S         O    LR                                           0404040204    183425                2  0000     0                 0204201500111                                                                                                                                                                                                                                                                                                                                                                                   1316101911002LS0034250        1316101911002LS0033460        1316101911002SS0026970                                                                                                                     .
13161004101911002GOOSE CREEK CISLEE H S        BRETADO        DANIEL     634728086M07272000 100001H100    C02 1     01   1  3012822104822861  010191100200002R9T6M00                         09868215943A1                           080                   000101                                 S         O    AR                                           0404050401    183425                2  0000     0                  604201400632                                                                                                                                                                                                                                                                                                                                                                                   1316101911002AS0034250        1516101911002AS1036250        1316101911002AS0032530                                                                                                                     .
13161104101911002GOOSE CREEK CISLEE H S        BROWN          LEWIS     M627729887M06012000 100001H000    000 0     01   13021390  104690301  010191100200002XDQFJ00                         06973385451A1                           080                   100000                                 S         O    SR                                           0202030201    103053                1  0000     0                                                                                                                                                                                                                                                                                                                                                                                                                 1316101911002SS0030530        1315101911002SS1035500        1316101911002SS0031760        1316101911002SS0031450                                                                                       .
13161004101911002GOOSE CREEK CISLEE H S        BRUNETT        SHAUN     L641702619M03252000 000001W000    000 1     01   1  3022216104824395  010191100200002SFDCQ00                         01227466838A1                           080                   100100                                 S         O    AR                                           0203060102    143255                2  0000     0                                                                                                                                                                                                                                                                                                                                                                                                                 1316101911002AS0032550        1516101911002AS1037750        1316101911002AS0035400                                                                                                                     .
13161004101911002GOOSE CREEK CISLEE H S        BUENROSTRO     RAMON      632741790M11302000 100001H001    C02 0     01   077660    104687684  010191100200002T67Q400                         01479736384A1                           080                   000000                                 S         O    SR                                           0205020300    123160                2  0000     0                  604201400632                                                                                                                                                                                                                                                                                                                                                                                   1316101911002SS0031600        1316101911002SS0033460        1316101911002SS0030190                                                                                                                     .
13161104101911002GOOSE CREEK CISLEE H S        CANTRELL       DILLION   L648223147M06202000 000001W100    000 0     01   13029142  104919293  010191100200003V56GS00                         13419152213A1                           080                   000000                                 S         O    SF                                           0202030202    113108                2  0000     0                                                                                                                                                                                                                                                                                                                                                                                                                 1316101911002SS0031080        1316101911002SS1038800        1316101911002SS0028100                                                                                                                     .
13161004101911002GOOSE CREEK CISLEE H S        CARRILLO       JUANARTURO 640768401M07052001 110001H000    C00 0     01   182597    104824506  010191100200002T8Y5J00                         09159272465A1                           080                   000000                                 S         O    SR                                           0603040304    203500                2  0010     0                  614201400642                                                                                                                                                                                                                                                                                                                                                                                   1316101911002SS0035000        1516101911002SS1036550        1316101911002SS0036220                                                                                                                     .
13161004101911002GOOSE CREEK CISLEE H S        CEJA           FERNANDO   645764471M07262001 100001H200    000 0     01   177284    104690033  010191100200002T956400                         03131348453A1                           080                   000000                                 S         O    SR                                           0611080602    333972                2  1011     0                                                                                                                                                                                                                                                                                                                                                                                                                 1316101911002SS1039720        1516101911016SS1038760        1316101911002SS1040420                                                                                                                     .
13161004101911002GOOSE CREEK CISLEE H S        CERDA          ELIAS     D631680786M09041999 100001H000    000 0     01   1    75116104822459  010191100200002JHTVC00                         02232639886A1                           080                   000000                                 S         O    SR                                           0706030202    203500                2  0010     0                                                                                                                                                                                                                                                                                                                                                                                                                 1316101911002SS0035000        1516101911002SS1037290        1616101911002SS1041660                                                                                                                     .
13161004101911002GOOSE CREEK CISLEE H S        CHAVEZ-CRUZ    ALICIA     592955315F07272000 110001H100    000 1     01   1    90534104691468  010191100200002T5N3J00                         04164231874A1                           080                   000101                                 S         O    AR                                           0403040103    153300                2  0000     0                                                                                                                                                                                                                                                                                                                                                                                                                 1316101911002AS0033000        1516101911002AS1036630        1316101911002AS0034340                                                                                                                     .
13161004101911002GOOSE CREEK CISLEE H S        CISNEROS       LEONARDO   639745262M01182001 100001H000    000 0     01   1  3029554104642363  010191100200002GD5MW00                         04459221284A1                           080                   000000                                 S         O    SR                                           0504040203    183425                2  0000     0                                                                                                                                                                                                                                                                                                                                                                                                                 1316101911002SS0034250        1316101911002SS1036960        1516061902004SS1037750                                                                                                                     .
13161004101911002GOOSE CREEK CISLEE H S        CORDONA        JUSTIN    E632705283M01312000 100001H000    C02 0     01   173863    104822946  010191100200002T67JZ00                         07955895568A1                           080                   000001                                 S         O    SR                                           0201060201    123160                2  0000     0                  604201400642                                                                                                                                                                                                                                                                                                                                                                                   1316101911002SS0031600        1516101911002SS1040270        1316101911002SS0030460                                                                                                                     .
13161004101911002GOOSE CREEK CISLEE H S        CRUZ BARAHONA  HIBIS     TS18317328F03182000 100010H000    000 1     00   1  3026105104939529  010191100200063V52XQ00                         02548565696A1                           080                   100100                                 S         O    SF                                           0201040203    123160                2  0000     0                                                                                                                                                                                                                                                                                                                                                                                                                 1316101911002SS0031600        1316101911002SS0032120                                                                                                                                                   .
13161004101911002GOOSE CREEK CISLEE H S        DE LA ROSA     ANGEL     AS17067331M07251999 100001H100    C02 0     01   13024940  104689545  010191100200003T5N4600                         06195973599A1                           080                   000001                                 S         O    LR                                           0304010401    133209                2  0000     0                 0104201601121                                                                                                                                                                                                                                                                                                                                                                                   1316101911002LS0032090        1316101911002LS0034290        1316101911002SS0030730                                                                                                                     .
13161004101911002GOOSE CREEK CISLEE H S        DELEON         ARAZELLY  N645727212F10192000 100001H000    000 0     01   1    77366104688418  010191100200002T95YW00                         03856874275A1                           080                   000000                                 S         O    SR                                           0406080602    263721                2  1011     0                                                                                                                                                                                                                                                                                                                                                                                                                 1316101911002SS1037210        1516101911002SS1035800        1516101911002SS1039400                                                                                                                     .
13161104101911002GOOSE CREEK CISLEE H S        DELEON         MARIA     GS17039998F01111999 100001H000    000 0     01   170238    104584658  010191100200002T4MQN00                         07679269963A1                           080                   000000                                 S         O    SR                                           0306050701    223577                1  1011     0                                                                                                                                                                                                                                                                                                                                                                                                                 1316101911002SS1035770        1615101911002SS1035850        1516101911002SS1038130        1316101911002SS0033920                                                                                       .
13161004101911002GOOSE CREEK CISLEE H S        DUGAS          ISAAC     A641745681M02132001 000100B000    000 0     01   077914    104822877  010191100200002T87FW00                         08953311233A1                           080                   000000                                 S         O    SR                                           0301030000    072857                2  0000     0                                                                                                                                                                                                                                                                                                                                                                                                                 1316101911002SS0028570        1316101911002SS0034290        1316101911002SS0033300                                                                                                                     .
13161004101911002GOOSE CREEK CISLEE H S        DUKE           MICAH     J642727018M09172000 100001H000    000 1     01   1    84845104586466  010191100200062SFX8J00                         03717235826A1                           080                   000100                                 S         O    AR                                           0404060301    183425                2  0000     0                                                                                                                                                                                                                                                                                                                                                                                                                 1316101911002AS0034250        1516101911002AS1035890        1316101911002AS0031250                                                                                                                     .
13161004101911002GOOSE CREEK CISLEE H S        DURAN          MELANIE    641765419F07052001 100001H000    S00 0     01   1  3004403104823833  010191100200002DYW4Q00                         01129571939A1                           080                   000000                                 S         O    SR                                           0804070803    303863                2  1011     0                                                                                                                                                                                                                                                                                                                                                                                                                 1316101911002SS1038630        1516101911002SS1038760        1516101911002SS1039630                                                                                                                     .
13161004101911002GOOSE CREEK CISLEE H S        EARVIN         ALONZO    D630746097M11212000 000100B000    000 0     01   177714    104688976  010191101500002T6QKV00                         07486976617A1                           080                   000000                                 S         O    SR                                           0302050105    163343                2  0000     0                                                                                                                                                                                                                                                                                                                                                                                                                 1316101911002SS0033430        1316101911002SS0031630        1316101911002SS0024880                                                                                                                     .
13161004101911002GOOSE CREEK CISLEE H S        FERGUSON-GEORGEMCKENZIE  D627726075F06052000 000001W000    000 1     01   2    84701104823231  010191100200002T53CY00                         03228682498A1                           090                   100100                                 S         O    AR                                           0203020302    123160                2  0000     0                                                                                                                                                                                                                                                                                                                                                                                                                 1316101911002AS0031600        1316101911002AS1038060        1316101911002AS0028760                                                                                                                     .
13161004101911002GOOSE CREEK CISLEE H S        FONTENOT       DESMOND   L637748758M01122001 100100H000    000 0     01   083261    104823513  010191100200002T8CQ500                         04773768932A1                           080                   000000                                 S         O    SR                                           0203040101    113108                2  0000     0                                                                                                                                                                                                                                                                                                                                                                                                                 1316101911002SS0031080        1516101911002SS1035500        1316101911002SS0034870                                                                                                                     .
13161004101911002GOOSE CREEK CISLEE H S        FUENTES        JOEY      O631741199M11172000 110000H000    C00 0     01   177382    104823840  010191100200002T6XW800                         01574637487A1                           080                   000000                                 S         O    SR                                           0300040200    092993                2  0000     0                  614201400642                                                                                                                                                                                                                                                                                                                                                                                   1316101911002SS0029930        1316101911002SS0033460        1316101911002SS0036220                                                                                                                     .
13161004101911002GOOSE CREEK CISLEE H S        FUENTES        RICARDO   A637745205M01132001 100001H000    000 1     01   1    77554104822488  010191100200002T8CP300                         07364718583A1                           080                   100100                                 S         O    AR                                           0203030200    103053                2  0000     0                                                                                                                                                                                                                                                                                                                                                                                                                 1316101911002AS0030530        1316101911002AS0032590        1316101911002AS0030190                                                                                                                     .
13161004101911002GOOSE CREEK CISLEE H S        GARCIA         ARIANA    R627786328F07202001 100001H000    000 0     01   275661    104691782  010191100200002T53R600                         01597426121A1                           080                   000000                                 S         O    SR                                           0504040303    193464                2  0000     0                                                                                                                                                                                                                                                                                                                                                                                                                 1316101911002SS0034640        1516101911002SS1040000        1316101911002SS0036220                                                                                                                     .
13161004101911002GOOSE CREEK CISLEE H S        GARCIA         AUBREY    R644843807F02182000 100001H000    000 1     01   1  3014075104584765  010191100200002SG34Z00                         01248948165A1                           080                   000101                                 S         O    AR                                           0403020301    133209                2  0000     0                                                                                                                                                                                                                                                                                                                                                                                                                 1316101911002AS0032090        1316101911002AS1035840        1316101911002AS0031500                                                                                                                     .
13161004101911002GOOSE CREEK CISLEE H S        GARCIA         ERIC       633723845M07172000 100001H100    000 1     01   2    74129104690710  010191100200002T7FHP00                         01123324433A1                           010                   000100                                 A         O    AR                                           0000000000    001387                2  0000     0                                                                                                                                                                                                                                                                                                                                                                                                                 1316101911002AA0013870        1316101911002AS0034290        1316101911002AS0029920                                                                                                                     .
13161004101911002GOOSE CREEK CISLEE H S        GEORGE         KYMANI    L674106532M02252001 000101T000    000 1     01   1  3019164104822987  0101911002000026ZDNS00                         08934386126A1                           080                   000100                                 S         O    AR                                           0203040501    153300                2  0000     0                                                                                                                                                                                                                                                                                                                                                                                                                 1316101911002AS0033000        1516101911002AS1035500        1316101911002AS0031760                                                                                                                     .
13161004101911002GOOSE CREEK CISLEE H S        GIEGER         KENNETH   W636726183M08132000 100011H000    000 0     01   180402    104689415  010191100200002T74SP00                         04116497185A1                           080                   000000                                 S         O    SR                                           0206020202    143255                2  0000     0                                                                                                                                                                                                                                                                                                                                                                                                                 1316101911002SS0032550        1516101911002SS1037290        1316101911002SS0033050                                                                                                                     .
13161004101911002GOOSE CREEK CISLEE H S        GONZALEZ       ADRIAN    A634680860M09171999 100001H100    000 0     01   13028475  104730715  010191100200002TG6Y500                         05582219439A1                           080                   000000                                 S         O    SR                                           0203030403    153300                2  0000     0                                                                                                                                                                                                                                                                                                                                                                                                                 1316101911002SS0033000        1516101905001SS1037000        1316101911002SS0034600                                                                                                                     .
13161004101911002GOOSE CREEK CISLEE H S        GONZALEZ LOPEZ DANIEL     S17066266M04032001 100001H200    C02 0     01   13017532  104688632  01019110020000265PF800                         08154149958A1                           080                   000001                                 S         O    LR                                           0104050301    143255                2  0000     0                 0204201501121                                                                                                                                                                                                                                                                                                                                                                                   1316101911002LS0032550        1316101911002LS1036960        1316101911002SS0033560                                                                                                                     .
13161004101911002GOOSE CREEK CISLEE H S        GUTIERREZ      YADIRA     645756007F07122001 100001H000    000 0     01   0    79065104692277  010191100200002T956D00                         08186642714A1                           080                   000000                                 S         O    SR                                           0405070505    263721                2  1011     0                                                                                                                                                                                                                                                                                                                                                                                                                 1316101911002SS1037210        1516101911003SS1036550        1516101911003SS1039400                                                                                                                     .
13161004101911002GOOSE CREEK CISLEE H S        HALEY          FAITH     S638764323F06092001 000100B000    000 0     01   082621    104584727  010191100200002T8KF700                         01892291533A1                           080                   000000                                 S         O    SR                                           0403060102    163343                2  0000     0                                                                                                                                                                                                                                                                                                                                                                                                                 1316101911002SS0033430        1316101911002SS0033030        1316101911002SS0032790                                                                                                                     .
13161104101911002GOOSE CREEK CISLEE H S        HAYNES         TRAVIS    R155194076M11261999 000100B100    000 0     00   13016870  104939834  0101911002000025QYST00                         08864757813A1                           080                   000000                                 O    3    O    SR                                           0405060201    183425                1  0000     0                                                                                                                                                                                                                                                                                                                                                                                                                 1515101911015SS1038500                                      1515101911015SS1040550                                                                                                                     .
13161004101911002GOOSE CREEK CISLEE H S        HERNANDEZ      ANTHONY    644708605M05232000 100001H000    000 0     01   173795    104823116  010191100200002T9W7D00                         07183194647A1                           080                   000000                                 S         O    SR                                           0805040602    253685                2  1011     0                                                                                                                                                                                                                                                                                                                                                                                                                 1316101911002SS1036850        1516101911002SS1037750        1316101911002SS0036220                                                                                                                     .
13161104101911002GOOSE CREEK CISLEE H S        IBARRA         OSBALDO    638641866M12111998 100001H100    000 0     01   169710    104688256  010191100200002T8JDS00                         01523171243A1                           080                   000000                                 S         O    SR                                           0205060506    243649                1  1011     0                                                                                                                                                                                                                                                                                                                                                                                                                 1316101911002SS1036490        1515101911002SS1036740        1615101911002SS1039250        1316101911002SS0035450                                                                                       .
13161004101911002GOOSE CREEK CISLEE H S        IZAGUIRRE      GEMMA     YS17065430F09142000 110000H000    000 0     01   1  3008099104824411  010191100200002ZVJN400                         09749764668A1                           080                   000000                                 S         O    SR                                           0404090402    233613                2  1011     0                                                                                                                                                                                                                                                                                                                                                                                                                 1316101911002SS1036130        1516101911002SS1037000        1616101911002SS1039460                                                                                                                     .
13161004101911002GOOSE CREEK CISLEE H S        JACKSON        MARKEL     662013420M02232000 000100B000    000 0     01   075365    104824403  010191100200002ZRCW400                         07137354157A1                           080                   000000                                 S         O    SR                                           0402030402    153300                2  0000     0                                                                                                                                                                                                                                                                                                                                                                                                                 1316101911002SS0033000        1316101911002SS0032590        1316101911002SA0010440                                                                                                                     .
13161104101911002GOOSE CREEK CISLEE H S        JIMENEZ        GUSTAVO    645705658M05292000 100001H000    C02 0     01   169294    104917028  010191100200002T95R600                         04462675517A1                           080                   000000                                 S         O    SR                                           0304040300    143255                1  0000     0                                                                                                                                                                                                                                                                                                                                                                                                                 1316101911002SS0032550        1316101911002SS0034290        1316101911002SS0032790        1316101911002SS0033180                                                                                       .
13161004101911002GOOSE CREEK CISLEE H S        JIMENEZ        JESSE     A635729237M08032000 100001H200    000 1     01   1    75369104586882  010191100200002T7WK500                         07553667498A1                           080                   000101                                 S         O    AR                                           0706060702    283792                2  1011     0                                                                                                                                                                                                                                                                                                                                                                                                                 1316101911002AS1037920        1516101911002AS1036250        1316101911002AS0033560                                                                                                                     .
13161004101911002GOOSE CREEK CISLEE H S        JOHNSON        RAYLON    J642742966M02192001 000100B000    000 1     01   0    78485104692014  010191100200002T9GC500                         09916941157A1                           080                   000101                                 S         O    AR                                           0502020302    143255                2  0000     0                                                                                                                                                                                                                                                                                                                                                                                                                 1316101911002AS0032550        1316101911002AS0033460        1316101911002AS0031250                                                                                                                     .
13161004101911002GOOSE CREEK CISLEE H S        JOY            CASEY     S636702353F03072000 100001H000    000 1     01   1    77088104823126  010191100200002T74NS00                         05242464437A1                           080                   000110                                 S         O    AR                                           0502030302    153300                2  0000     0                                                                                                                                                                                                                                                                                                                                                                                                                 1316101911002AS0033000        1316101911002AS0033030        1316101911002AS0030460                                                                                                                     .
13161004101911002GOOSE CREEK CISLEE H S        JUAREZ         AILEEN    R627789506F08102001 100001H100    000 1     01   1    82483104824490  010191100200002T53SP00                         04437741773A1                           080                   100100                                 S         O    AR                                           0204020603    173384                2  0000     0                                                                                                                                                                                                                                                                                                                                                                                                                 1316101911002AS0033840        1616101911002AS1038090        1316101911002AS0032020                                                                                                                     .
13161204101911002GOOSE CREEK CISLEE H S        KING           CAMERON   D637626100M07061998 000100B000    000 0     01   13029465  104615655  010191100200002T8BQR00                         09455426919A1                           080                   000000                                 S         O    SR                                           0402050604    213550                1  1011     0                                                                                                                                                                                                                                                                                                                                                                                                                 1316101911002SS1035500        1514101919003SS1035770        1316101911002SS0036500        1316101911002SS0033920        1316101911002SS1035000                                                         .
13161104101911002GOOSE CREEK CISLEE H S        LERMA          RONALDO    S17041564M07201999 100001H001    C02 0     01   188352    104688768  010191100200002T4NRK00                         01878425692A1                           080                   000001                                 S         O    SR                                           0602050401    183425                1  0000     0                  604201500632                                                                                                                                                                                                                                                                                                                                                                                   1316101911002SS0034250        1515101911002SS1037460        1316101911002SS1038830        1316101911002SS0032440                                                                                       .
13161004101911002GOOSE CREEK CISLEE H S        LEWIS          AMBER     A637740294F01082001 000100B000    000 0     01   084486    104690477  010191100200002T8CMJ00                         03528234229A1                           080                   000000                                 S         O    SR                                           0202030401    123160                2  0000     0                                                                                                                                                                                                                                                                                                                                                                                                                 1316101911002SS0031600        1516101911002SS1037000        1316101911002SA0010440                                                                                                                     .
13161004101911002GOOSE CREEK CISLEE H S        LOPEZ          GERMAN     402579236M09232000 100001H200    C02 1     01   1    64964104824207  010191100200002T4YGW00                         08495447738A1                           080                   000101                                 S         O    AR                                           0402010000    072857                2  0000     0                  604201400632                                                                                                                                                                                                                                                                                                                                                                                   1316101911002AS0028570        1616101911002AS1036250        1316101911002AS0032020                                                                                                                     .
13161004101911002GOOSE CREEK CISLEE H S        LOPEZ          HUGO      AS17040387M06082001 100001H100    000 0     01   078768    104823226  010191100200002T4M3500                         08448568575A1                           080                   000000                                 S         O    SR                                           0305010300    123160                2  0000     0                                                                                                                                                                                                                                                                                                                                                                                                                 1316101911002SS0031600        1616101911002SS1037950        1316101911002SS0034600                                                                                                                     .
13161004101911002GOOSE CREEK CISLEE H S        LUCATERO       SUSY      M642720161F08222000 110000H000    C02 0     01   075168    104824364  010191100200002T9F7P00                         05386258621A1                           080                   000000                                 S         O    SR                                           0302040200    113108                2  0000     0                  604201400632                                                                                                                                                                                                                                                                                                                                                                                   1316101911002SS0031080        1316101911002SS0033460        1316101911002SS0030730                                                                                                                     .
13161004101911002GOOSE CREEK CISLEE H S        LUGO           JOE       M643764898M07232001 100001H000    000 0     01   179063    104691859  010191100200002T9PGV00                         07565736139A1                           080                   000000                                 S         O    SR                                           0105050202    153300                2  0000     0                                                                                                                                                                                                                                                                                                                                                                                                                 1316101911002SS0033000        1516101911002SS1037290        1316101911002SS0036220                                                                                                                     .
13161004101911002GOOSE CREEK CISLEE H S        LUNA           ADONIS    A639728066M09072000 100001H200    000 0     01   077268    104689401  010191100200002T8RNP00                         01234265672A1                           080                   000000                                 S         O    SR                                           0504100403    263721                2  1011     0                                                                                                                                                                                                                                                                                                                                                                                                                 1316101911002SS1037210        1516101911003SS1040270        1316101911002SS0036780                                                                                                                     .
13161104101911002GOOSE CREEK CISLEE H S        LUNA           ISAIAS     633668662M04221999 100001H000    C02 1     01   2  3024856104591366  010191100200002T7D3B00                         07262331183A1                           080                   000101                                 S         O    AR                                           0604060501    223577                1  1011     0                  604201400632                                                                                                                                                                                                                                                                                                                                                                                   1316101911002AS1035770        1515101910003SS1037460        1315101911002SS0033420        1516101911002AS1040000                                                                                       .
13161004101911002GOOSE CREEK CISLEE H S        MARTINEZ       EMERALD   AS17041308F02092001 100001H000    000 0     01   083854    104687553  010191100200002RW7CH00                         05587781887A1                           080                   000000                                 S         O    SR                                           0507030302    203500                2  0010     0                                                                                                                                                                                                                                                                                                                                                                                                                 1316101911002SS0035000        1316101911002SS0031630        1316101911002SS0029640                                                                                                                     .
13161104101911002GOOSE CREEK CISLEE H S        MATCHETT TEREZAERICK     AS17065734M04081998 100001H000    C02 0     01   03011785  104690157  0101911002000024D7GB00                         04641984689A1                           080                   000001                                 S         O    SR                                           0205040300    143255                1  0000     0                  504201400222                                                                                                                                                                                                                                                                                                                                                                                   1316101911002SS0032550        1316101911002SS0033460        1615101911003SS0029420        1316101911002SS0028660        1616101911002SS1035000                                                         .
13161104101911002GOOSE CREEK CISLEE H S        MATTHEWS       TYLER     A645705654M05262000 000001W000    000 0     01   1    78440104688534  010191100200002T95R300                         03459564636A1                           080                   000100                                 S         O    AF                                           0304060201    163343                1  0000     0                                                                                                                                                                                                                                                                                                                                                                                                                 1316101911002AS0033430        1316101911002AS0034290        1516101911002AS0029740        1316101911002AS0030940                                                                                       .
13161004101911002GOOSE CREEK CISLEE H S        MCCORMICK      KALVIN    A642687199M11171999 000100B100    000 1     01   1  3025569104584749  010191100200002BX7CS00                         01434363392A1                           080                   000100                                 S         O    AR                                           0704060402    233613                2  1011     0                                                                                                                                                                                                                                                                                                                                                                                                                 1316101911002AS1036130        1316101911002AS1037330        1316101911002AS0033300                                                                                                                     .
13161004101911002GOOSE CREEK CISLEE H S        METOYER        VALENTE   T637704475M01022000 000100B100    000 1     01   1    83334104823452  010191100200002T8CGK00                         04398851879A1                           080                   100100                                 S         O    AR                                           0203010001    072857                2  0000     0                                                                                                                                                                                                                                                                                                                                                                                                                 1316101911002AS0028570        1616101911002AS1037000        1316101911002AS0034080                                                                                                                     .
13160904101911002GOOSE CREEK CISLEE H S        MILLIGAN       LAWRENCE  E643643285M01221999 100001H100    000 1     01   2  3030179104589510  022091200100002KVQ5400                         09224162835A1                           080                   000100                                 S         O    AR                                           0402040101    123160                1  0000     0                                                                                                                                                                                                                                                                                                                                                                                                                 1316101911002AS0031600        1316101911002AS1036220        1316101911002AS0029920        1316101911002AS0031450                                                                                       .
13161004101911002GOOSE CREEK CISLEE H S        MIRANDAMUNOZ   JAIME      S17067492M07072001 100001H100    C02 0     01   13025859  104824331  010191100200003T5N7H00                         01674754485A1                           080                   000001                                 S         O    LR                                           0403030201    133209                2  0000     0                 0103201600121                                                                                                                                                                                                                                                                                                                                                                                   1316101911002LS0032090        1316101911002LS0034290        1316101911002SS0030190                                                                                                                     .
13161004101911002GOOSE CREEK CISLEE H S        NUNEZ          ANAHI      627723843F04172000 100001H000    C02 0     01   170748    104579503  010191100200002T53BX00                         06658217181A1                           080                   000001                                 S         O    SR                                           0306050502    213550                2  1011     0                  604201400632                                                                                                                                                                                                                                                                                                                                                                                   1316101911002SS1035500        1316101911002SS0033460        1316101911002SS0033300                                                                                                                     .
13161004101911002GOOSE CREEK CISLEE H S        OCHOA          AUDREY    B628782877F08152001 100001H000    000 1     01   1    77476104690693  010191100200002T598S00                         03742236547A1                           080                   000101                                 S         O    AR                                           0603050503    223577                2  1011     0                                                                                                                                                                                                                                                                                                                                                                                                                 1316101911002AS1035770        1516101911002AS1036250        1516101911002AS1037990                                                                                                                     .
13161104101911002GOOSE CREEK CISLEE H S        ORTIZ          RAY       A628646533M09291998 100001H000    000 0     01   13024284  104888134  010191100200002R6NK700                         04232551271A1                           010                   000100                                 A         O    AF                                           0000000000    001387                1  0000     0                                                                                                                                                                                                                                                                                                                                                                                                                 1316101911002AA0013870        1615101838004SS1037330        1316101911002SA0010440                                                                                                                     .
13161104101911002GOOSE CREEK CISLEE H S        PEREZ          TINA      M638642668F12211998 100001H000    000 0     01   171004    104823550  010191100200002T8JFM00                         04568422639A1                           080                   000000                                 S         O    SR                                           0403050200    143255                1  0000     0                                                                                                                                                                                                                                                                                                                                                                                                                 1316101911002SS0032550        1515101911002AS1035000        1316101911002SS0036780        1316101911002SS0033920                                                                                       .
13161004101911002GOOSE CREEK CISLEE H S        PULIDO         CRISTIAN  A628742380M10042000 100001H000    C02 0     01   079072    104581280  010191100200002T59XY00                         09362128144A1                           080                   000001                                 S         O    SR                                           0305060503    223577                2  1011     0                  604201400642                                                                                                                                                                                                                                                                                                                                                                                   1316101911002SS1035770        1516101911002SS1038500        1316101911002SS1039770                                                                                                                     .
13161004101911002GOOSE CREEK CISLEE H S        PULIDO         JORGE     A628741524M10042000 100001H000    C02 0     01   179073    104585253  010191100200002T59XK00                         02179661339A1                           080                   000000                                 S         O    SR                                           0306070203    213550                2  1011     0                  604201400642                                                                                                                                                                                                                                                                                                                                                                                   1316101911002SS1035500        1516101911002SS1038500        1316101911002SS0036780                                                                                                                     .
13161004101911002GOOSE CREEK CISLEE H S        RAMIREZ        JUAN      J629769934M04122001 100001H000    000 1     01   1    78014104822586  010191100200002WCGQK00                         04875469624A1                           090                   100100                                 S         O    AR                                           0503030102    143255                2  0000     0                                                                                                                                                                                                                                                                                                                                                                                                                 1316101911002AS0032550        1316101911002AS0033890        1316101911002AS0029920                                                                                                                     .
13161004101911002GOOSE CREEK CISLEE H S        RAMOS          AILIN     F629787021F08102001 100001H100    000 0     01   1    75630104823148  010191100200002T6HZJ00                         03121937677A1                           080                   000000                                 S         O    SR                                           0504050402    203500                2  0010     0                                                                                                                                                                                                                                                                                                                                                                                                                 1316101911002SS0035000        1516101911002SS1035800        1516101911002SS1037960                                                                                                                     .
13160904101911002GOOSE CREEK CISLEE H S        ROAN           SEAN       634828649M06272002 000100B260    000 0     01   1    87493104652394  010191100200002ZRBGP00                         03123848981A1                           080                   000000                                 S         O    SR                                           0505060300    193464                2  0000     0                                                                                                                                                                                                                                                                                                                                                                                                                 1316101911002SS0034640        1516101867001SS1039250                                                                                                                                                   .
13161004101911002GOOSE CREEK CISLEE H S        RODRIGUEZ      LEO        631709638M02082000 100001H100    000 1     01   1    74736104822659  010191100200002T6XP800                         07127472521A1                           080                   000101                                 S         O    AR                                           0204030501    153300                2  0000     0                                                                                                                                                                                                                                                                                                                                                                                                                 1316101911002AS0033000        1316101911002AS0030580        1316101911002AS0029640                                                                                                                     .
13161004101911002GOOSE CREEK CISLEE H S        RUSSELL        BRETT     L634729781M07312000 000001W000    000 1     01   1    75876104586410  010191100200002T7NBD00                         05631496461A1                           090                   000100                                 S         O    AR                                           0304040601    183425                2  0000     0                                                                                                                                                                                                                                                                                                                                                                                                                 1316101911002AS0034250        1516101911002AS1035500        1316101911002AS0032530                                                                                                                     .
13161004101911002GOOSE CREEK CISLEE H S        SANCHEZ        GENARO     627744283M10032000 110000H000    C02 0     01   084986    104690243  010180400100012T53HX00                         01435654285A1                           080                   000001                                 S         O    SR                                           0301030100    082929                2  0000     0                  604201400632                                                                                                                                                                                                                                                                                                                                                                                   1316101911002SS0029290        1316101911002SS0031120        1316101911002SS0034340                                                                                                                     .
13161004101911002GOOSE CREEK CISLEE H S        SANTILLAN      MIGUEL    A640760086M06262001 100001H200    C00 0     01   177755    104824194  010191100200002T8Y3W00                         03779421399A1                           080                   000000                                 S         O    SR                                           0603040201    163343                2  0000     0                  614201400642                                                                                                                                                                                                                                                                                                                                                                                   1316101911002SS0033430        1316101911002SS0033890        1316101911002SS0033050                                                                                                                     .
13161004101911002GOOSE CREEK CISLEE H S        SOLORZANO      GISELLE    635720493F07312000 100001H200    000 0     01   176875    104824487  010191100200002T7WF300                         02327279445A1                           080                   000000                                 S         O    SR                                           0405050502    213550                2  1011     0                                                                                                                                                                                                                                                                                                                                                                                                                 1316101911002SS1035500        1516101911002SS1037750        1316101911002SS0035140                                                                                                                     .
13161004101911002GOOSE CREEK CISLEE H S        SPENCE         JAHCHRIS  S640765672M05292001 000100B000    000 0     01   1    78115104691715  010191100200002T8Y4Z00                         09464885831A1                           080                   000000                                 S         O    SR                                           0604080204    243649                2  1011     0                                                                                                                                                                                                                                                                                                                                                                                                                 1316101911002SS1036490        1516101911002SS1037750        1616101911002SS1039460                                                                                                                     .
13161004101911002GOOSE CREEK CISLEE H S        ST CLAIR       ISAIAH    C641726156M09152000 000100B000    000 0     01   1    80024104822429  010191100200002T869S00                         04724682655A1                           080                   000000                                 S         O    SR                                           0402030402    153300                2  0000     0                                                                                                                                                                                                                                                                                                                                                                                                                 1316101911002SS0033000        1516101911002SS1041480        1516101911002SS1037960                                                                                                                     .
13161004101911002GOOSE CREEK CISLEE H S        ST CROIX       KIANA     L643729358F10032000 000100B000    000 1     01   1    81749104691118  010191100200002T9N8X00                         06434819633A1                           080                   000101                                 S         O    AR                                           0202040000    082929                2  0000     0                                                                                                                                                                                                                                                                                                                                                                                                                 1316101911002AS0029290        1316101911002AS0032120        1316101911002AS0028100                                                                                                                     .
13161004101911002GOOSE CREEK CISLEE H S        SUBIA          JOEANGEL  M644761607M07242001 110000H000    000 0     01   1    78362104822480  010191100200002T9XJ400                         03282674198A1                           090                   000000                                 S         O    SR                                           0404030203    163343                2  0000     0                                                                                                                                                                                                                                                                                                                                                                                                                 1316101911002SS0033430        1516101911002SS1039250        1516101911002SS1038130                                                                                                                     .
13161004101911002GOOSE CREEK CISLEE H S        TERRY          ASI JON   S638766660F06102001 000100B000    000 1     01   084057    104823719  010191100200002T8KG300                         03428146514A1                           080                   000000                                 S         O    SR                                           0705050703    273756                2  1011     0                                                                                                                                                                                                                                                                                                                                                                                                                 1316101911002SS1037560        1516101911015SS1038760        1316101911002SS0035670                                                                                                                     .
13160904101911002GOOSE CREEK CISLEE H S        THOMAS         SHAI KEEM S665015928M07182000 000100B000    000 0     01   13003712  104689077  010191100200002ZRCWG00                         02567921699A1                             0                   000000                                 A         P    SF                                           0000000000    001387                2  0000     0                                                                                                                                                                                                                                                                                                                                                                                                                 1316101911002SA0013870        1316101911002SS0033890        1316101911002SS0031250                                                                                                                     .
13161104101911002GOOSE CREEK CISLEE H S        TORRES         ISMAEL    A641709268M04222000 100001H000    000 0     01   074703    104688895  010191100200002T865C00                         06373327248A1                           080                   000000                                 S         O    SR                                           0703010203    163343                1  0000     0                                                                                                                                                                                                                                                                                                                                                                                                                 1316101911002SS0033430        1315101911002SS1039250        1316101911002SS0032530        1316101911002SS0034680                                                                                       .
13161004101911002GOOSE CREEK CISLEE H S        VALENCIA-GARCIABRYAMS    U673090175M03022000 100010H000    C02 0     01   03025215  104687959  010191100200003TQ9VS00                         07813589882A1                           080                   000001                                 S         O    LR                                           0505060703    263721                2  1011     0                 2205201601221                                                                                                                                                                                                                                                                                                                                                                                   1316101911002LS1037210        1316101911002LS0031630        1316101911002SS0033820                                                                                                                     .
13161104101911002GOOSE CREEK CISLEE H S        WILLIAMS       KEITHTRICKD641707818M04222000 000100B100    000 0     01   189223    104590493  010191100200002T864S00                         08173971838A1                           080                   000000                                 S         O    SR                                           0306030302    173384                1  0000     0                                                                                                                                                                                                                                                                                                                                                                                                                 1316101911002SS0033840        1515101911003SS1041550        1315101912007SS0032420        1316101911002SS1042090                                                                                       .
13160904101911002GOOSE CREEK CISLEE H S        WOLFE          JOSHUA    K633704689M02162000 000001W100    000 0     01   0    76881104748985  010191100200002T7FBV00                         09284616794A1                           080                   000100                                 S         O    AR                                           0204020201    113108                2  0000     0                                                                                                                                                                                                                                                                                                                                                                                                                 1316101911002AS0031080        1516101811001SS1146880        1316101911002AA0010440                                                                                                                     .
13161004101911002GOOSE CREEK CISLEE H S        WORSHAM        HANNAH    J629746594F11132000 000001W000    000 1     01   1    68295104688676  010191100200002T6HR500                         03278314522A1                           080                   000100                                 S         O    AR                                           0503040101    143255                2  0000     0                                                                                                                                                                                                                                                                                                                                                                                                                 1316101911002AS0032550        1316101911002AS0032590        1316101911002AS0029360                                                                                                                     .
13161004101911002GOOSE CREEK CISLEE H S        ACEVEDO        ALFREDO    632112460M01272001 100001H000    C02 0     01   13024786  104585404  010191100200003TWKDQ00                         06151452178BI                           060                   000001                                 S         O    LR                                           0304010205    153259                2  0000     0                 0103201600121                                                                                                                                                                                                                                                                                                                                                                                   1516101911002LS1040000        1316101911002LS0032590        1316101911002SS0033300                                                                                                                     .
13161204101911002GOOSE CREEK CISLEE H S        AGUILAR CASTRO YORDI     RS16672114M04041999 100001H000    C02 0     01   13023671  104584736  0101911002000025Q8JF00                         04947522941BI                           060                   000001                                 S         O    SR                                           0602040402    183389                1  0000     0                  604201400522                                                                                                                                                                                                                                                                                                                                                                                   1316101911002SS0028570        1316101911002SS0033890        1316101911002SS0032790        1316101911002SS0030940        1516101911002SS1036250                                                         .
13161004101911002GOOSE CREEK CISLEE H S        ALANIS         NICOLAS    645746971M03182001 100001H000    000 0     01   181743    104581198  010191100200002T954M00                         09819247284BI                           060                   000000                                 S         O    SR                                           0403040401    163303                2  0000     0                                                                                                                                                                                                                                                                                                                                                                                                                 1316101911002SS1036130        1316101911002SS0033030        1316101911002SS0035670                                                                                                                     .
13161004101911002GOOSE CREEK CISLEE H S        ALEJANDRO      SAMARA    K630727178F06202000 100001H000    C02 0     01   088612    104584769  010191100200002T6QGX00                         09844391946BI                           060                   000001                                 S         O    SR                                           0603040204    193429                2  0000     0                  604201400642                                                                                                                                                                                                                                                                                                                                                                                   1516101911002SS1038320        1316101911002SS0034290        1316101911002SS1038520                                                                                                                     .
13161204101911002GOOSE CREEK CISLEE H S        ARIZMENDI REYESARMANDO   AS17066724M09071998 100001H000    C02 0     01   13020222  104823542  01019110020000268VH500                         01344866824BI                           090                   000001                                 S         O    LR                                           0504030403    193429                1  0000     0                 0304201500111                                                                                                                                                                                                                                                                                                                                                                                                                 1316101911002LS0034290        1316101911002SS0028760        1316101911002SS0029290        1316101911002LS0033070                                                         .
13161004101911002GOOSE CREEK CISLEE H S        BENITEZ HERNANDFREDIS    JS17067467M07102000 100001H100    C02 0     01   13025596  104917027  010191100200003T5N6700                         03926134186BI                           060                   000001                                 S         O    LF                                           0502030402    163303                2  0000     0                 0104201601121                                                                                                                                                                                                                                                                                                                                                                                   1316101911002LS1037210        1316101911002LS0033030        1316101911002SS0032270                                                                                                                     .
13161004101911002GOOSE CREEK CISLEE H S        BONILLA MADRID LUIS      AS17066597M03072001 100001H000    C02 0     01   03020280  104823442  01019110020000265N7S00                         01198535253BI                           060                   000001                                 S         O    LR                                           0205020404    173346                2  0000     0                 0204201500111                                                                                                                                                                                                                                                                                                                                                                                   1316101911002LS0034250        1316101911002LS0033460        1316101911002SS0026970                                                                                                                     .
13161004101911002GOOSE CREEK CISLEE H S        BRODD          KADE      A644682498M12161999 000001W000    000 0     01   2    77319104690398  010191100200002T9WVJ00                         03685328794BI                           060                   000000                                 S         O    SF                                           0608090609    384157                2  1011     1                                                                                                                                                                                                                                                                                                                                                                                                                 1516101911002SS1035500        1316101911002SS1041570        1516101911002SS1043880                                                                                                                     .
